:020000040800F2
:10000000700C002465030008A96B0008F16100086A
:10001000A16B000851080008E97F000800000000FB
:10002000000000000000000000000000096E000851
:10003000A90C000800000000B16B0008116E000858
:100040008303000883030008830300088303000878
:100050008303000883030008830300088303000868
:10006000830300088303000883030008590800087D
:10007000690800088303000883030008830300085D
:100080008303000883030008410800088303000875
:100090008303000883030008830300088303000828
:1000A0008303000883030008830300088303000818
:1000B0008303000883030008830300088303000808
:1000C00083030008830300088303000883030008F8
:1000D00083030008830300088303000883030008E8
:1000E0008303000883030008000000008303000866
:1000F00083030008830300088303000883030008C8
:1001000083030008830300088303000883030008B7
:1001100083030008830300088303000883030008A7
:100120008303000883030008830300088303000897
:100130008303000883030008830300088303000887
:1001400000000000000000000000000000000000AF
:100150008303000883030008830300088303000867
:100160008303000883030008830300088303000857
:100170008303000883030008830300088303000847
:100180008303000883030008830300088303000837
:100190008303000883030008830300088303000827
:1001A0008303000883030008830300088303000817
:1001B0008303000883030008830300088303000807
:1001C00083030008830300088303000883030008F7
:1001D00083030008830300088303000883030008E7
:1001E00083030008830300088303000883030008D7
:1001F00083030008830300088303000883030008C7
:1002000083030008830300088303000883030008B6
:1002100083030008830300088303000883030008A6
:100220008303000883030008830300080000000024
:100230008303000883030008000000008303000814
:100240008303000883030008830300088303000876
:100250008303000883030008830300088303000866
:100260008303000883030008830300088303000856
:1002700083030008830300088303000800000000D4
:1002800083030008830300088303000800000000C4
:10029000000000008303000800F002F800F052F8AC
:1002A00014A696E8000CB244B344DA4501D100F03C
:1002B00049F8BAE80F000FA696E83000A5EB040550
:1002C00004EB0607AAEB0704A7F101074FEA15158F
:1002D0004FEA3414A4F10104AC4201D300F032F827
:1002E00013F0010F18BFFB1A43F0010300F001F8EF
:1002F000DBE71847607E0000807E0000103A24BFD4
:1003000078C878C1FAD8520724BF30C830C144BF7A
:1003100004680C6070470000704700000023002450
:1003200000250026103A28BF78C1FBD8520728BF05
:1003300030C148BF0B6070471FB507F0DCFE1FBD22
:1003400010B510BD00F0D4F81146FFF7F5FF07F027
:100350004FFE00F0F2F803B4FFF7F2FF03BC00F029
:10036000F9F800000A4880470A4880470A480047D1
:10037000FEE7FEE7FEE7FEE7FEE7FEE7FEE7FEE755
:10038000FEE7FEE705480649064A074B70470000AE
:10039000C10C0008F96E00089902000870060024DC
:1003A000700C0024700800247008002453EA020C2A
:1003B00000F069802DE9F04B4FF00006002B1FBFC5
:1003C000B3FA83F503FA05F424FA05F65E4012BF8A
:1003D0001643B2FA82F502FA05F4C5F120051EBFF4
:1003E00022FA05FC44EA0C04203556EA044C4FEA94
:1003F000144418BF641C4FF000084FF000099042ED
:1004000071EB030C39D3002919BFB1FA81F701FA56
:1004100007F6B0FA80F700FA07F6C7F120071EBF0B
:1004200020FA07FC46EA0C062037B6FBF4FCA7EBE3
:100430000507103F07F01F0BCBF120062CFA06F63C
:100440000CFA0BFB44BFB3460026202FA4BF5E4628
:100450004FF0000B5BEA060C08BF4FF0010B19EBE5
:100460000B0948EB0608ABFB027C06FB02CC0BFB3E
:1004700003CCC01B71EB0C01C1E70B4602464146A1
:100480004846BDE8F08B13B5084318BF4FF0FF3066
:100490000146AFF30080BDE81C4070474FF00002FA
:1004A00000B5134694469646203922BFA0E80C506A
:1004B000A0E80C50B1F12001BFF4F7AF090728BF45
:1004C000A0E80C5048BF0CC05DF804EB890028BFC1
:1004D00040F8042B08BF704748BF20F8022B11F0EA
:1004E000804F18BF00F8012B704770477047704766
:1004F000754600F02BF8AE4605006946534620F0DD
:100500000700854618B020B5FFF73CFFBDE8204046
:100510004FF000064FF000074FF000084FF0000BBF
:10052000AC46ACE8C009ACE8C009ACE8C009ACE82E
:10053000C00921F007018D46704710B50446AFF39E
:1005400000802046BDE81040FFF705BF0048704717
:100550001000002401491820ABBEFEE7260002006F
:100560007047000000000000B0B50446006842F289
:10057000001140F48070C4F20201884218D142F2A6
:100580000830C4F20200006810F4403F18D004F0B4
:1005900093F861680546B1F5803F05D0B1F5403F5D
:1005A0002CD0B1F5003F2AD1080CB5FBF0F526E0C0
:1005B00046F20830C5F60200006810F4403FE6D16C
:1005C0004FF40020002102F0CBFF61680546A1F541
:1005D00080228B0343EA92420A2A10D8DFE802F015
:1005E0000606060606065052545658006FF00100E3
:1005F00000EA5140B5FBF0F501E000BFAD0802F0A4
:1006000077FC41F2030188420ED8206842F601517E
:10061000C0F231118D4281682CBF41F4807121F408
:1006200080718160B0BD00BF4BF62140C0F2BE00BA
:10063000854205D82068816821F440718160B0BD91
:1006400047F64100C0F27D10854207D8206801229C
:10065000816862F309218160B0BD00BF20684FF25C
:100660008101C0F2FA218D42816805D8022262F32D
:1006700009218160B0BD00BF41F440718160B0BD0F
:100680002D09BCE76D09BAE7AD09B8E7ED09B6E792
:100690002D0AB4E7000000000146806B426D12F0A5
:1006A000500F426D06D0D20610D4C06CC26C084602
:1006B000104700BF42F40071416501680A681207E3
:1006C000CA6805D4910709D000F066BE00F08CBE60
:1006D00012F4406FF8D1C9688904F5D4416D21F452
:1006E00080714165416DC904EED4416D41F0010155
:1006F000416500F051BE0000806B416D41F040014A
:100700004165816D41F00401816500F06DBE00001E
:10071000806B00F065BE0000B0B5016804468A68D1
:100720008868C0074FF0000031D012F0020218BFF5
:10073000B0BD886800F00D0001281FD14FF6C072CF
:100740008868C7F6FF721040023088600320086096
:1007500002F0D6FB21688968C90701D10020B0BD2D
:10076000054602E08068C007F8D002F0C9FB401BD4
:1007700003282068F6D38168C907F3D0606D40F084
:1007800010006065A06D40F00100A0650120B0BDC3
:10079000F0B581B0044600688168C9074CD14FF6B6
:1007A000C0778168C7F6FF7707F17F0211420BD04F
:1007B000606D40F010006065A06D40F00100A06524
:1007C000012001B0F0BD00BF8168394041F0010156
:1007D000816002F095FB42F2000346F20836C4F253
:1007E0000203216803F5807203F54275C5F602061F
:1007F000914208BF2E46994208BF2E4699420546AF
:10080000306816D0914214D110F01F0014D110E0BE
:100810008868C00704D18868384040F001008860CB
:1008200002F06EFB401B2168032802D30868C00752
:10083000BED00868C007EBD0002001B0F0BD0000BA
:1008400040F27020C2F2004000F0D2BD0000000073
:10085000FEE700000000000040F2D420C2F2004099
:1008600001F05EB90000000040F24C30C2F20040DE
:1008700001F056B90000000040F20F42D0F800C06D
:10088000C4F20202944511DC6F22C4F202029445C4
:1008900022DC3F22C4F20202944539DC1022C4F269
:1008A000020294455AD0282254E000BF40F26F4221
:1008B000C4F2020294451BDC40F23F42C4F2020241
:1008C00094452DDC40F21042C4F20202944545D01A
:1008D00040F228423EE000BF9F22C4F2020294454B
:1008E00028DC7022C4F20202944537D0882231E01D
:1008F00040F29F42C4F20202944523DC40F270426F
:10090000C4F20202944529D040F2884222E000BF9E
:100910004022C4F20202944520D058221AE000BFBF
:1009200040F24042C4F20202944517D040F25842CD
:1009300010E000BFA022C4F2020294450ED0B822FB
:1009400008E000BF40F2B842C4F20202944505D06C
:1009500040F2A042C4F20202944517D10CF0F80212
:100960004AF6AB23103ACAF6AA23A2FB03310AA324
:100970005F2AC1F302115B5C40F2FF312CEA0101F6
:10098000C36588BF04318165084670472CF0FF01BC
:1009900081650846704700BF000610160006101655
:1009A00070B540F26F44D0F800C0C4F20204D0F831
:1009B00058E0A4451ADC9F25C4F20205AC4533DC9F
:1009C0005725C4F20205AC455ADC1025C4F20205D5
:1009D000AC4500F098802825C4F20205AC4500F033
:1009E00092804025C4F202058AE000BF45F22F45FF
:1009F000C5F60205AC452DDC40F2B745C4F2020550
:100A0000AC454BDC40F27045C4F20205AC457AD0EF
:100A100040F28845C4F20205AC4574D040F2A045CE
:100A2000C4F202056CE000BF40F22745C4F20205A3
:100A3000AC4543DCA025C4F20205AC4563D0B82523
:100A4000C4F20205AC455ED040F21045C4F2020586
:100A500056E000BF45F26B45C5F60205AC453FDCEC
:100A600045F23045C5F60205AC454CD045F244454B
:100A7000C5F60205AC4546D045F258453EE000BFFC
:100A80005825C4F20205AC453DD07025C4F20205DC
:100A9000AC4538D08825C4F2020531E040F2B845B3
:100AA000C4F20205AC452ED045F20845C5F6020554
:100AB000AC4528D045F21C4520E000BF40F2284557
:100AC000C4F20205AC451ED040F24045C4F2020516
:100AD000AC4518D040F25845C4F2020510E000BF02
:100AE00045F26C45C5F60205AC450CD045F294457F
:100AF000C5F60205AC4506D045F28045C5F60205AF
:100B0000AC4540F0D080456EC66E002E866E6E609D
:100B10001CBFD0E91C566E60A44515DC9F24C4F2AE
:100B20000204A4452CDC5724C4F20204A44551DC81
:100B30001024C4F20204A4457AD02824C4F202048A
:100B4000A44575D040246FE045F22F44C5F6020459
:100B5000A44529DC40F2B744C4F20204A44545DCB4
:100B600040F27044C4F20204A44561D040F28844CB
:100B7000C4F20204A4455BD040F2A04454E000BF9C
:100B800040F22744C4F20204A4453FDCA024C4F28E
:100B90000204A4454CD0B824C4F20204A44547D0B2
:100BA00040F2104440E000BF45F26B44C5F6020439
:100BB000A44555DC45F23044C5F60204A44561D095
:100BC00045F24444C5F60204A4455BD045F25844BE
:100BD00054E000BF5824C4F20204A44528D0702475
:100BE000C4F20204A44523D088241DE040F2B84496
:100BF000C4F20204A4451BD045F20844C5F6020421
:100C0000A4453FD045F21C4438E000BF40F22844E0
:100C1000C4F20204A4450BD040F24044C4F20204E2
:100C2000A44505D040F25844C4F20204A4453AD188
:100C30008468C06D00F01F003F2505FA00F0CEF873
:100C40000800DCF80000402C20F48020CCF80000E4
:100C5000CCF8043023D1CCF80820CCF80C1070BDAF
:100C600045F26C44C5F60204A4450BD045F280441D
:100C7000C5F60204A44505D045F29444C5F6020425
:100C8000A44510D1C46D012504F01F04806805FA45
:100C900004F4CEF804404028CCF80430DBD0CCF883
:100CA0000810CCF80C2070BD704700000000000058
:100CB000EFF3108072B600BFFEE7000000000000F6
:100CC00044F60400C5F60200816841F0020181602B
:100CD0000168890409D4016889045CBF01685FEA7E
:100CE000814102D401688904F2D5704700000000F8
:100CF00070B582B000230193044690F8500001289B
:100D000002D1022002B070BD012084F850002046BC
:100D100015460E46FFF700FD616D18B141F0100158
:100D20004CE000BF41F202124FF6C0739143C3F68C
:100D3000FE7302316165216806F4803605F0804556
:100D40008A682E4413404FF2FF72C2F2C3523344FA
:100D500003F100438B608B68B3F1FF3F2ADC019BFA
:100D600001330193019B93421DD88B68B3F1FF3F80
:100D700020DC019B01330193019B934213D88B68C4
:100D8000B3F1FF3F16DC019B01330193019B9342BA
:100D900009D88B68B3F1FF3F0CDC019B0133019351
:100DA000019B9342D7D9606D40F0100020F0020102
:100DB000012003E0616D012262F301016165002100
:100DC00084F8501002B070BD7047000000000000B1
:100DD00070470000000000007047000000000000A5
:100DE0007047000000000000704700000000000095
:100DF00090F85020012A01D102207047B0B582B08E
:100E000042F2083200230193C4F202020093A2F5D9
:100E100042740368A34227D14FF6006E4FF6005587
:100E2000CFF6FF7ECFF6FF7552F80E40535923439D
:100E30005B0719D4D1F800C01368BCF1000F23F48C
:100E400040441FD04B6823431360535952F80E504F
:100E50002B43DB0722D1136840F61F75AB4389682B
:100E6000194341EA0C0118E0416D41F02001416550
:100E70000121002280F8502002B0BDE8B0400846B1
:100E8000704700BF1460515952F80E301943C9071A
:100E900004D1116840F61F73994311600021E8E7FF
:100EA000F0B581B00022009290F85020012A03D1C1
:100EB0000221084601B0F0BD0768012380F85030D8
:100EC000BB685B0700F196810C684FF6FF7CB4F1BC
:100ED000FF3FC0F20F0C4FEA94630FDD94FAA4F2C7
:100EE00014EA0C0FB2FA82F208BFA20E012402F03B
:100EF0001F0204FA02F2FC692243FA614A681F26C3
:100F000003F01F03C2F3012402F01F02964007EB17
:100F1000840403FA02F2256B25EA060632432263B3
:100F2000BA68BB6802F0040203F00803D21840F06C
:100F300096800A6807258E68C2F34063C2F30452A4
:100F400007EB830395405C6906FA02F224EA050583
:100F50002A435A6141F20002C5F60042126802F0CB
:100F60007042B2F1805F33D14A69FB680E2606EA0F
:100F7000530302FA03F30C69042C39D007F1600221
:100F80000E6806F0F84652F82450334305F0004549
:100F90002B4342F824300B694E7E52F82350012E29
:100FA00025F0004508BF05F1004542F823500A7EB0
:100FB0000B693E69013A03F01F03B2FA82F226F48C
:100FC000F0465209D2029A4032433A6147E000BFEC
:100FD000FA684B69FE68D2064FEA560402D404F060
:100FE0000E0201E004F0080293400C69042CC5D104
:100FF0003A6E0B6802F0F8429B069A4218D13A6E9C
:1010000022F000423A667A6E02F0F8429A4214D018
:10101000BA6E02F0F8429A4218D1BA6E22F000423B
:10102000BA66FA6E02F0F8429A4214D017E000BF96
:101030007A6E02F0F8429A42EAD17A6E22F00042C9
:101040007A66BA6E02F0F8429A42E6D0FA6E02F080
:10105000F8429A4203D1FA6E22F00042FA66BA6868
:10106000D20779D1D1F800E00023C968D7F8C020B1
:101070000EEA0C04C4F25273A24301F018042CFAD5
:1010800004F603F52D0506EA0E06A94246EA02011A
:10109000C7F8C0105DD142F20011C4F202018F42C4
:1010A00026D042F20001C4F202018F423CD11F213E
:1010B000C1F2F0418E4540F3C38040F2FF71C2F6A9
:1010C00030618E4540F3A98040F60001C2F63061E0
:1010D0008E4500F04F8141F20001C3F260218E4540
:1010E00000F038810021C4F221318E451DD047E146
:1010F0001F21C1F2F0418E4500F388800721C0F620
:1011000090418E4500F3AA800221C0F230418E4505
:1011100000F0A1800421C0F660018E4540F03081CE
:101120004023C1F6201300E0002393FAA3F143F615
:10113000C132B1FA81F1C0F20A0213424FF001024A
:1011400008BF990E01F01F0102FA01F1FA6911437B
:10115000F961BEF1FF3F01DD002150E042F20001E4
:1011600046F2083CC4F20201C5F6020C01F5807299
:1011700001F542739742624608BF1A468F4242F217
:10118000001408BF1A4647F48073C4F20204A34255
:10119000136827D18A68D1F808111143C90729D1EA
:1011A000002103F0E074CCF684318E4508BF13F4BF
:1011B000000165D00021CCF252718E4540F0A28032
:1011C0000021B1EB146F40F09D80ACF542718F426D
:1011D000C2D1DCF8001021F0E071214341F08071B0
:1011E000A7E000BF4FF60051CFF6FF715CF8011089
:1011F000C907D5D0416D41F0200141650121002290
:1012000080F85020084601B0F0BD00BF40F2FF71E9
:10121000C2F630618E4500F391802021C1F2F04189
:101220008E4500F09D8040F20041C2F600218E45BF
:1012300040F0A68040F60003C2F6306375E700BFB9
:101240000721C0F690418E4508DC0221C0F23041F2
:101250008E457FF45FAF012367E700BF0821C0F62A
:1012600090418E4500F082801021C1F2C0018E4570
:1012700040F0868040F20013C2F2801355E700BFB1
:10128000ACF542718F427FF467AFDCF8001042F694
:10129000635221F0E071C0F23E52214341F400015B
:1012A000CCF8001040F20801C2F200410968890937
:1012B000A1FB02129109022202EB41010091009967
:1012C00000293FF449AF00990139009100990029A4
:1012D0003FF442AF009901390091009900293FF491
:1012E0003BAF009901390091009900293FF434AFD8
:1012F000009901390091009900294FF00001E2D1D5
:101300007DE700BFACF542718F424FF000017FF4E2
:1013100076AF0022CCF6B872964508BF13F480026F
:101320007FF46DAFDCF8001021F0E071214341F44F
:101330008001CCF80010002161E700BF40F60001F9
:10134000C2F630618E4515D041F20001C3F2602132
:101350008E4515D142F20003C3F29063E5E600BF6B
:1013600040F20023C2F2B053DFE600BF8023C1F693
:101370005053DAE641F20003C3F26023D5E600BF22
:1013800000210023C4F684318E4504BF0023C4F637
:10139000B873CAE60000000042F200010068C4F21F
:1013A0000201884218BF704710B540F2700440F245
:1013B000D850C2F20044C2F200404FF400722146FD
:1013C00004F0A2FE40F270204FF48072C2F200409E
:1013D0002146BDE8104000F01FBB000000000000E7
:1013E000704700000000000070470000000000008F
:1013F0002DE9F04F81B046F2083942F20002C5F6FD
:101400000209C4F202020446006802F5807A02F57D
:10141000427B4946504508BF5946904208BF59464D
:1014200006684568B2070F680FD515F002010CD0A9
:10143000606DC00603D4606D40F4006060652046B6
:10144000FFF7C2FC206802210160710707F01F0846
:1014500002D515F0040104D131074DD515F008016E
:101460004AD0214651F8542FD20603D40A6842F4D8
:1014700000720A60C26812F4406F37D142F2000372
:101480000246C4F20203504508BF1A46B8F1090FDC
:10149000134608BF0346B8F1050F08BF0346B8F16D
:1014A000000F08BF0346824208BF1346DA68920461
:1014B0001CD40268120719D5826852070CD44268FE
:1014C00022F00C024260086820F48070086008680E
:1014D000C00407D50AE000BF606D04F1580140F078
:1014E00010006065086840F0010008602046FFF7C2
:1014F00053FF20680C210160B10602D515F02001D0
:1015000004D171062FD515F040012CD0214651F899
:10151000542FD20603D40A6842F400520A6042F201
:1015200000020346C4F20202504508BF1346B8F158
:10153000070F1A4608BF0246B8F1060F08BF024659
:10154000B8F1000F08BF0246834208BF1A46C36CB9
:1015500013F4C07FC368D26876D02046FFF738FC0A
:1015600020686021016031060CD515F0800109D09A
:10157000606D40F480306065204600F0D1F920684D
:1015800080210160F1050DD515F480710AD0606DE0
:1015900040F4003060652046FFF722FC20684FF4DD
:1015A00080710160B1050DD515F400710AD0606D30
:1015B00040F4802060652046FFF716FC20684FF459
:1015C00000710160F10624D515F0100121D0216BC6
:1015D00089B1B8F1000F59D042F20001504508BF5F
:1015E000D946C4F20201884208BFD946D9F8001092
:1015F00011F4404F0BD0606D40F480606065A06DC9
:1016000040F00200A0652046FFF7EEFE20681021A2
:101610000160710514D515F4806111D0616D41F43C
:1016200080416165A16D41F00801A1654FF48061C1
:101630000160204601B0BDE8F04FFFF7CDBB00BF11
:1016400001B0BDE8F08F00BF970106D503F44063F9
:1016500002F40057DB197FF480AF03685B067FF567
:101660007CAF12F400127FF478AF8268120711D4B5
:10167000426822F060024260086820F480500860EE
:101680000868C0053FF569AF0AE000BFC168890777
:10169000B1D1BCE7606D04F1580140F01000606505
:1016A000086840F00100086057E7000000000000F3
:1016B00070B582B0044600284FF00000019009D0B8
:1016C000606D58B120688168890012D48168C900B2
:1016D00019D54AE00126304602B070BD204600F020
:1016E00023F90020A06584F85000206881688900F3
:1016F000ECD54FF6C0728168C5F6FF72114081606B
:101700008168C90031D44FF6C0718268C5F6FF7197
:1017100001F18051114042F6635201F18051816024
:1017200040F20801C0F23E52C2F200410968890944
:10173000A1FB0212012101EB921101E00199013993
:101740000191019989B1019901390191019961B121
:10175000019901390191019900291FBF01990139AE
:101760000191019918BF0029E8D18168C90009D405
:10177000616D012641F010016165A16D41F001012B
:10178000A16500E000268168626D02F0100201F0A0
:1017900004018918616D40F0918021F4817102315A
:1017A00061658168C90728D142F2001240F4807156
:1017B000C4F20202914242F20001C4F2020140F07E
:1017C000A5808A68D1F808311A43D20715D101F5EE
:1017D000807201F5427346F2080C9042C5F6020C85
:1017E0001A4618BF0CF54072884208BF1A46606856
:1017F000116821F47C110843106001F079FB41F27B
:10180000030100228842A068A0F1100188BF0122D4
:10181000B1FA81F1237F49091140226B617D1546A0
:1018200016BF4D034A031C20012B45EA034141EA40
:10183000020141EA000106D1206A0022CFF6FE72C1
:1018400002EB40400143606A20B100F47870A26A64
:101850001043014320684CF20303CFF6F073C268D3
:101860001A401143C1608168826801F0040102F0EE
:101870000802891836D1217D44F20305E26AC36863
:1018800042EA813123EA05021143C16094F838101D
:10189000012901691AD14FF61E020125CFF6004237
:1018A000CFF6FF751140D4E90F231943636C05EBA4
:1018B00002421143A26C1943114309E041F01000A8
:1018C00001266065304602B070BD00BF21F0010105
:1018D00001610169626B21F0704111430161204691
:1018E000FEF742FE2068E1680129026B22F00F0139
:1018F00002D1A269013A114301630121606D61F3D4
:1019000001006065304602B070BD00BF46F20802BB
:10191000C5F602021268D2073FF459AF6DE7000026
:10192000704700000000000070B5B8B0044602A87F
:1019300028309821002637963696FEF7AFFD42F202
:1019400000012068C4F20201884201D038B070BDA5
:101950004FF400200290192004904FF4FC70059081
:101960000720069002A8039602250B96CDE907559D
:10197000CDE9096601F0CCFF08B1FFF799F944F20F
:10198000D8400026C5F60200016841F02001016040
:10199000016801F0200101910199816841F0020183
:1019A0008160806833A900F0020001900198032053
:1019B000349040F20040C5F602003395359601F0B0
:1019C000C3F940F2D4251020C2F20045C4F202004F
:1019D00028600920C5E901064FF4806028614FF4B2
:1019E000006068614FF40050EE60C5E906062846C5
:1019F000C5E9086600F0A0FC08B1FFF759F912200C
:101A000000210022E564AC6301F062FB122001F0CA
:101A10004BFB38B070BD00002DE9F04142F20017D9
:101A200046F20835C4F20207036807F50276C5F6E8
:101A300002050446A7F58070BB4208BF35468342C5
:101A400008BF354628689B685B0704D40E4694F8A7
:101A50005010012902D10220BDE8F08100F01F05DD
:101A60000120092D84F8500009D8A84040F2212116
:101A7000084204D020469046FEF78AFE30B100208E
:101A800084F850000120BDE8F08100BF2168606D3E
:101A900040F6017220EA020000F5807060650DB129
:101AA000B94203D0606D20F480106065606D40F233
:101AB0009963C0044FF0000044BFA06D20F0060001
:101AC00040F21177C0F60003A065C0F60007E06C95
:101AD0000022C0E90F3740F2F963E76AC0F600035D
:101AE000C3641C230B6084F8502043464A6842F0CC
:101AF00010024A60CA6822F003023A43CA604031C9
:101B0000324600F04DFF21684FF6C073C7F6FF73F1
:101B10008A681A4004328A60BDE8F0810000000043
:101B20002DE9F04782B00021019140F208010446FE
:101B3000C2F2004148F2B512C1F64E32A56D0968F5
:101B400040F26F490068C4F20209A1FB021848453F
:101B50002E68296816DC9F21C4F2020188422DDC20
:101B60005721C4F20201884252DC1021C4F2020162
:101B700088427CD02821C4F20201884277D04021DB
:101B800070E000BF45F22F42C5F60202904229DC08
:101B900040F2B742C4F20202904245DC40F270418A
:101BA000C4F20201884262D040F28841C4F20201CC
:101BB00088425CD040F2A04154E000BF40F227418F
:101BC000C4F2020188423FDCA021C4F20201884233
:101BD0004DD0B821C4F20201884248D040F21041F1
:101BE00040E000BF45F26B42C5F60202904275DC50
:101BF00045F23042C5F60202904200F0828045F282
:101C00004442C5F6020290427BD045F2584273E04E
:101C10005821C4F20201884229D07021C4F2020185
:101C2000884224D088211DE040F2B842C4F202026A
:101C300090421CD045F20842C5F60202904260D0A4
:101C400045F21C4258E000BF40F22841C4F20201B4
:101C500088420CD040F24041C4F20201884206D0D2
:101C600040F25841C4F20201884240F05183E16DD4
:101C7000082201F01F0140F20F4A8A40C4F2020A12
:101C8000324200F0DE8050454FF0040312DC6F2733
:101C9000C4F20207B8426DDC3F27C4F20207B84223
:101CA00000F39C801027C4F20207B84200F0BD8008
:101CB0002827B5E0484569DC40F23F47C4F20207F7
:101CC000B84200F3938040F21047C4F20207B842D2
:101CD00000F0AB8040F22847A2E000BF45F26C4222
:101CE000C5F6020290420CD045F28042C5F60202CF
:101CF000904206D045F29442C5F60202904240F06E
:101D000007830268E36D03F01F0304279F400F421F
:101D100018BF12F0040623D102279F400F4218BFBC
:101D200012F0020642D1D940090740F1F18212F0C7
:101D3000080100F0ED82016821F00E010160012030
:101D400000FA03F16960606584F83500E16C0029F0
:101D50004FF0000084F8340040F0D582D8E200BF94
:101D600011046F6034D4910636D4016821F0040167
:101D7000016031E09F27C4F20207B84240DC7027BF
:101D8000C4F20207B84250D0882749E040F29F478A
:101D9000C4F20207B8423BDC40F27047C4F20207CB
:101DA000B84242D040F288473AE000BF11046F6069
:101DB00000F1B282910600F1B382016821F00A01BC
:101DC0000160012084F83500002084F83400A7E287
:101DD000D00301D4A16C95E2216C93E24027C4F2B8
:101DE0000207B84221D058271AE000BF40F240470E
:101DF000C4F20207B84218D040F2584710E000BFC2
:101E0000A027C4F20207B8420FD0B82708E000BFED
:101E100040F2A047C4F20207B84206D040F2B847E9
:101E2000C4F20207B84218BF082307681F4208D04F
:101E3000036823F004030360AA60626D42F00102AC
:101E4000626501228A4032426FD0504510DC6F2318
:101E5000C4F2020398421DDC3F23C4F202039842FD
:101E600034DC1023C4F20203984256D028234FE0FA
:101E700048451BDC40F23F43C4F2020398422DDC8C
:101E800040F21043C4F20203984246D040F2284385
:101E90003EE000BF9F23C4F20203984228DC702377
:101EA000C4F20203984238D0882331E040F29F43C5
:101EB000C4F20203984223DC40F27043C4F20203EE
:101EC00098422AD040F2884322E000BF4023C4F267
:101ED0000203984221D058231AE000BF40F2404349
:101EE000C4F20203984218D040F2584310E000BFF9
:101EF000A023C4F2020398420FD0B82308E000BF29
:101F000040F2A043C4F20203984206D040F2B84324
:101F1000C4F20203984240F0058243691B0604D5CF
:101F2000AA60626D42F00202626504228A40324277
:101F30006FD0504510DC6F23C4F2020398421DDCC1
:101F40003F23C4F20203984234DC1023C4F202039C
:101F5000984256D028234FE048451BDC40F23F43CF
:101F6000C4F2020398422DDC40F21043C4F2020393
:101F7000984246D040F228433EE000BF9F23C4F27F
:101F80000203984228DC7023C4F20203984238D03E
:101F9000882331E040F29F43C4F20203984223DCDD
:101FA00040F27043C4F2020398422AD040F28843C0
:101FB00022E000BF4023C4F20203984221D05823FC
:101FC0001AE000BF40F24043C4F20203984218D026
:101FD00040F2584310E000BFA023C4F2020398422D
:101FE0000FD0B82308E000BF40F2A043C4F20203C0
:101FF000984206D040F2B843C4F20203984240F03F
:10200000998103689B0704D5AA60626D42F00402BF
:102010006265102202FA01F1314200F081805045E0
:102020004FF0080210DC6F23C4F2020398421DDC5B
:102030003F23C4F20203984234DC1023C4F20203AB
:10204000984256D028234FE048451BDC40F23F43DE
:10205000C4F2020398422DDC40F21043C4F20203A2
:10206000984246D040F228433EE000BF9F23C4F28E
:102070000203984228DC7023C4F20203984238D04D
:10208000882331E040F29F43C4F20203984223DCEC
:1020900040F27043C4F2020398422AD040F28843CF
:1020A00022E000BF4023C4F20203984221D058230B
:1020B0001AE000BF40F24043C4F20203984218D035
:1020C00040F2584310E000BFA023C4F2020398423C
:1020D0000FD0B82308E000BF40F2A043C4F20203CF
:1020E000984206D040F2B843C4F20203984218BFA7
:1020F00004220368134213D0A960016849030168F0
:1021000008D4C90508D4016821F008010160216CD8
:1021100021B905E008034FD4216C09B12046884756
:10212000E06D00F01F01202000FA01F2324200F0C1
:10213000AD8020681023504510DC6F27C4F20207E1
:10214000B8421DDC3F27C4F20207B84238DC102732
:10215000C4F20207B8425AD0282753E048451BDC96
:1021600040F23F47C4F20207B84231DC40F2104768
:10217000C4F20207B8424AD040F2284742E000BF0A
:102180009F27C4F20207B8422CDC7027C4F2020772
:10219000B8423CD0882735E040F29F47C4F202079E
:1021A000B84227DC40F27047C4F20207B8422ED092
:1021B00040F2884726E000BFA16C0029AED1AFE70E
:1021C0004027C4F20207B84221D058271AE000BFC6
:1021D00040F24047C4F20207B84218D040F25847D4
:1021E00010E000BFA027C4F20207B8420FD0B82702
:1021F00008E000BF40F2A047C4F20207B84206D090
:1022000040F2B847C4F20207B84218BF0223076879
:102210001F423BD0AA6094F83520042A02681DD1E1
:1022200022F016020260426922F080024261226CB2
:102230000AB9A26C1AB1026822F0080202603F20BB
:102240008840A860012084F83500216D00294FF0F6
:10225000000084F8340056D15AE000BF51030168F1
:102260000CD4C9050ED4016821F0100101600120D1
:1022700084F83500002084F8340003E0080301D41A
:10228000616C00E0E16B09B120468847606D002871
:102290003ED0606DC00734D0042084F8350020683B
:1022A0004FEA9821026822F001020260019A01328D
:1022B00001928A421AD80268D20717D0019A0132D5
:1022C00001928A4212D80268D2070FD0019A0132D5
:1022D00001928A420AD80268D20707D0019A0132D5
:1022E00001928A4202D80268D207DFD10068C00793
:1022F0004FF0030008BF012084F83500002084F867
:102300003400E16C21B1204602B0BDE8F047084737
:1023100002B0BDE8F08700BFD00301D4616CF1E7E3
:10232000E16BEFE7026804228A4032427FF401AE9B
:102330006FE600BF02686CE62DE9F041044600F04C
:10234000DFFDFCB140F26F4805462068C4F2020888
:1023500040451BDC9F21C4F20201884232DC572138
:10236000C4F20201884259DC1021C4F20201884201
:1023700000F083802821C4F20201884200F07D80B1
:10238000402175E00120BDE8F08100BF45F22F41FA
:10239000C5F60201884229DC40F2B741C4F20201CD
:1023A000884247DC40F27041C4F20201884264D0A6
:1023B00040F28841C4F2020188425ED040F2A0415E
:1023C00056E000BF40F22741C4F20201884241DCDE
:1023D000A021C4F2020188424FD0B821C4F2020108
:1023E00088424AD040F2104142E000BF45F26B41C2
:1023F000C5F60201884200F3C18045F23041C5F6BE
:102400000201884200F0CD8045F24441C5F6020148
:10241000884200F0C68045F25841BDE05821C4F220
:102420000201884229D07021C4F20201884224D0DE
:1024300088211DE040F2B841C4F2020188421CD05C
:1024400045F20841C5F60201884200F0AA8045F233
:102450001C41A1E040F22841C4F2020188420CD0A4
:1024600040F24041C4F20201884206D040F2584195
:10247000C4F20201884240F02981022184F835101B
:10248000002184F83410016821F00101016000BFCF
:1024900020680168C9070DD000F032FD401B0628F6
:1024A000F6D320206065032084F835000120BDE8C4
:1024B000F08100BF48F23F0204F108060168CFF640
:1024C000106211406CCE1143A2691943E36929439C
:1024D000256A0E43616A3343042943EA050343EA4C
:1024E000020303D1D4E90B652E43334341F20006C6
:1024F000C5F600463668B6F1005F1DD36668A6F1E2
:102500002905292D18D8DFE805F01515151515151D
:10251000171717171717171717171717171717174B
:102520001515151517171717151517171717171747
:102530001515151543F4801303600429436923F02E
:10254000070341EA030140F0DD80D4E90A53002B80
:1025500041EA050100F0D680B2F5005F00F0B880D6
:10256000002A40F0C180022D00F0C180012D00F052
:10257000B580002D00F0BB80C4E000BF45F26C4187
:10258000C5F6020188420CD045F28041C5F6020131
:10259000884206D045F29441C5F60201884240F0D7
:1025A000958004F1080E022184F83510002184F88A
:1025B00034100168A3699EE80450A2F18007E6691F
:1025C000B7FA87F765697F09402A4FEA873743EAF8
:1025D00006026FF3101142EA050208BF102741EA14
:1025E000DC0142EA0E02236A394341EAD20141EAA0
:1025F000131140F80819C0B2CD2148433C2101EA2B
:102600009020E0652046FEF737F9E16D012201F0E8
:102610001F0102FA01F141602068404500F381800A
:102620009F21C4F20201884214DC5721C4F2020146
:10263000884227DC1021C4F20201884200F0C780E2
:102640002821C4F20201884200F0C1804021C4F276
:102650000201B9E040F22741C4F20201884221DCC4
:10266000A021C4F20201884200F0B180B821C4F276
:102670000201884200F0AB8040F21041C4F2020136
:10268000A2E000BF5821C4F20201884200F09F80FE
:102690007021C4F20201884200F099808821C4F2BE
:1026A000020191E040F22841C4F20201884200F0A8
:1026B0008E8040F24041C4F20201884200F08780DF
:1026C00040F25841C4F202017EE000BF4020E9E63A
:1026D000032D17D8DFE805F00E0B0E02A3F1C07230
:1026E000B2FA82F2520904E0032D03D30AD1C3F3F4
:1026F00000623AB140206065012084F83500BDE8F1
:10270000F08100BF41612046FEF7B6F8E16D3F223F
:1027100001F01F0102FA01F18160206840457FF756
:102720007FAF45F22F41C5F60201884216DC40F228
:10273000B741C4F20201884226DC40F27041C4F283
:102740000201884243D040F28841C4F2020188422B
:102750003DD040F2A041C4F2020135E045F26B41A8
:10276000C5F6020188421FDC45F23041C5F6020180
:1027700088422CD045F24441C5F60201884226D059
:1027800045F258411EE000BF40F2B841C4F20201D8
:1027900088421CD045F20841C5F60201884216D095
:1027A00045F21C410EE000BF45F26C41C5F6020146
:1027B00088420CD045F29441C5F60201884206D009
:1027C00045F28041C5F60201884240F0E18045F2C1
:1027D000574C45F6FC01C5F6020CC5F602016045F2
:1027E0000EDC45F22F42C5F60202904218DC45F29B
:1027F0000842C5F60202904228D045F21C4221E070
:1028000045F27F42C5F60202904213DC45F258427F
:10281000C5F60202904219D045F26C4212E000BFA8
:1028200045F23042C5F6020290420FD045F24442D2
:1028300008E000BF45F29442C5F60202904205D07E
:1028400045F28042C5F60202904247D100F0FC02F8
:102850004CF6CD43083ACCF6CC43A2FB0323A1F1BE
:10286000FC05A1F17C061B0905EB830503F01F02A3
:10287000A3682566802B4FF0010303FA02F2666617
:10288000A26605D100206060286072601EE000BF73
:102890006768FBB2013F072F2B60726016D85E1E7F
:1028A000082E19D2604501F1440237DC45F22F476A
:1028B000C5F60207B84241DC45F20847C5F60207F3
:1028C000B84259D045F21C474AE000BF002060677B
:1028D000C4E91B005CE000BFE06E54E000F0F802C9
:1028E0004AF6AB23103ACAF6AA23A2FB032740F20A
:1028F0000F43C4F2020308253A09984203F1AA06DD
:10290000134688BF05EB171340F60005B042C4F22A
:10291000020505F1800628BF1346A5E745F27F476B
:10292000C5F60207B84213DC45F25847C5F6020760
:10293000B84221D045F26C4712E000BF45F2304763
:10294000C5F60207B84217D045F2444708E000BF79
:1029500045F28047C5F60207B8420DD045F29447CC
:10296000C5F60207B84207D040F60000C4F20200E4
:1029700000F1FC0100F5A07201EB83000121E0668B
:10298000B1402267616700210160D4E91C01416008
:1029900000206065012184F83510BDE8F081000059
:1029A00040B1B0B5054690F83400012804D10220AA
:1029B000B0BD00BF01207047012085F8340095F8B4
:1029C0003500012828D1022085F8350000206865EF
:1029D0002868046824F0010404602846FDF7E0FF3D
:1029E00040F20F422868C4F2020240F26F41904266
:1029F000C4F2020118DC6F23C4F20203984225DC02
:102A00003F23C4F2020398423CDC1023C4F20203C9
:102A100098425ED0282357E04FF40060686500209C
:102A200085F834000120B0BD88421BDC40F23F43F2
:102A3000C4F2020398422DDC40F21043C4F20203B8
:102A4000984246D040F228433EE000BF9F23C4F2A4
:102A50000203984228DC7023C4F20203984238D063
:102A6000882331E040F29F43C4F20203984223DC02
:102A700040F27043C4F2020398422AD040F28843E5
:102A800022E000BF4023C4F20203984221D0582321
:102A90001AE000BF40F24043C4F20203984218D04B
:102AA00040F2584310E000BFA023C4F20203984252
:102AB0000FD0B82308E000BF40F2B843C4F20203CD
:102AC000984206D040F2A043C4F20203984240F07C
:102AD0002F8103680B2464F3440303602B6C1BB148
:102AE0000823046823430360884219DC9F23C4F24F
:102AF0000203984232DC5723C4F20203984259DCA5
:102B00001023C4F20203984200F096802823C4F2F6
:102B10000203984200F090804023C4F2020389E04F
:102B200045F22F43C5F6020398422DDC40F2B7432D
:102B3000C4F2020398424BDC40F27043C4F2020339
:102B4000984279D040F28843C4F20203984273D08D
:102B500040F2A043C4F202036CE000BF40F22743FE
:102B6000C4F20203984243DCA023C4F20203984259
:102B700062D0B823C4F2020398425DD040F2104301
:102B8000C4F2020356E000BF45F26B43C5F60203F0
:102B900098423FDC45F23043C5F6020398424BD0E1
:102BA00045F24443C5F60203984245D045F25843E6
:102BB0003EE000BF5823C4F2020398423CD0702389
:102BC000C4F20203984237D08823C4F2020331E0F2
:102BD00040F2B843C4F2020398422DD045F20843B4
:102BE000C5F60203984227D045F21C4320E000BFFF
:102BF00040F22843C4F2020398421DD040F2404301
:102C0000C4F20203984217D040F25843C4F20203C0
:102C100010E000BF45F26C43C5F6020398420BD0AA
:102C200045F29443C5F60203984205D045F280432D
:102C3000C5F60203984274D12B6E1C68E40303D5D9
:102C40001C6844F480741C60EB6E1BB11D6845F475
:102C500080751D60904211DC6F21C4F20201884230
:102C60001EDC3F21C4F20201884235DC1021C4F28F
:102C70000201884255D0282150E000BF88421BDC69
:102C800040F23F41C4F2020188422DDC40F2104183
:102C9000C4F20201884244D040F228413EE000BF25
:102CA0009F21C4F20201884228DC7021C4F2020193
:102CB000884236D0882131E040F29F41C4F20201BF
:102CC000884223DC40F27041C4F20201884228D0DD
:102CD00040F2884122E000BF4021C4F20201884254
:102CE0001FD058211AE000BF40F24041C4F2020157
:102CF000884216D040F2584110E000BFA021C4F233
:102D0000020188420DD0B82108E000BF40F2B8416E
:102D1000C4F20201884204D040F2A041C4F2020190
:102D20008842016841F0010101600020B0BD00BF90
:102D30000368052464F3430303602B6C002B3FF40A
:102D4000D3AE0423CDE600002DE9F04F82B00D682C
:102D5000002D00F0C78000F1264242F2004402F14B
:102D6000FF728305C5F602040A27A04243EA9222B5
:102D700008BF0927092A40F2040C38BF1746C5F6D8
:102D8000000C4FF0000E0097002700260AE000BF5D
:102D900001360D6835FA06F207F102070EF1040E4E
:102DA00000F0A080012202FA06FB15EA0B08EFD022
:102DB000D1F804A003220AF0030502FA07F36C1EFF
:102DC0006FEA0309012C0FD88368CC6803EA090372
:102DD000BC4023438360CAF30014436823EA0B0317
:102DE000B4402343436003E0032D01D1032520E0D9
:102DF000C3688C6803EA0903BC40022D43EA04035C
:102E0000C36016D16FF003020EF01C0502EA5603F0
:102E10000F22034402FA05FBD3F820A00C692AEA2A
:102E20000B0AAC4044EA0A041C62D1F804A00AF080
:102E30000305036805FA07F403EA09031AF4403F9F
:102E400043EA04030360A3D044F2F44240F2084A88
:102E5000C5F60202C5F6000A136843F002031360C8
:102E600013680F2203F00203019326F00303019C71
:102E70000EF00C0453F80A9002FA04F5009A29EABD
:102E8000050502FA04F44FF0B0492C4343F80A4018
:102E9000D9F800304C6843EA0805E20258BF23EA3B
:102EA0000805C9F80050A502DCF8002042EA080332
:102EB00058BF22EA0803A503CCF80030DCF88020D4
:102EC00042EA080358BF22EA0803E403CCF8803042
:102ED000DCF87C2042EA080358BF22EA0803CCF859
:102EE0007C3055E702B0BDE8F08F00000000000024
:102EF00041F20000C5F600400068000C7047000079
:102F000040F26C60C2F200400068704700000000B0
:102F100040F2000040F26C61C2F20040C2F2004197
:102F200000780A6810440860704700000000000044
:102F300080B5032000F0FCF801F046FC44F2184193
:102F400048F21C13C5F60201C0F600030A68C2F37A
:102F500003229A5C096801F00F0102F01F02595C1C
:102F6000D04040F20C02C2F2004201F01F0120FAF0
:102F700001F1116040F20801C2F2004108600F2027
:102F800000F00AF800281CBF012080BD00F07CF88A
:102F9000002080BD0000000070B540F20006C2F2C3
:102FA00000463178E1B1044640F20800C2F2004028
:102FB0004FF47A72B2FBF1F10068B0FBF1F001F06E
:102FC00047FF0F2C4FF0010508D838B94FF0FF30FC
:102FD00000222146002500F07BF87460284670BD71
:102FE000012070BD0000000010B54EF6A05E4178D3
:102FF000CEF2000E90F800C04EF8081CDEF800106B
:1030000021F00101CEF8001041684EF8041C017B4C
:10301000C37A827A447B1B0643EA0171837B41EACF
:10302000C241C27B41EA8441447A41EA4341007A89
:1030300041EA024141EA042141EA400040EA0C0031
:10304000CEF8000010BD00004EF62450CEF2000075
:10305000BFF35F8F016821F48031016000210167B7
:1030600070470000000000004EF6245140F00100BF
:10307000CEF200010867086840F480300860BFF3B2
:103080004F8FBFF36F8F704781B044F2F440C5F6A5
:103090000200016841F002010160006800F00200D6
:1030A0000090009801B07047002848BF704700F0BA
:1030B0001F01012202FA01F14EF20012C0F34A1080
:1030C000CEF2000242F8201070470000000000001D
:1030D00070B54EF60C5C4FF0FF36CEF2000C00F1EE
:1030E000604505F56445DCF80030C3F3022E8EF030
:1030F0000703042B28BF0423BEF1030406FA03F3DD
:1031000021EA030100F00F0338BF0024043B00282C
:10311000634406FA04F048BF03F10C05A14022EA1B
:10312000000008430001287070BD0000000000008E
:103130004EF60C514FF6FF03CEF200010A681A401A
:1031400060F30A2242F0806040F0FD700860704732
:10315000B0B544F60C05C5F602052968490729688B
:1031600006D401F00701081A18BF0120B0BD00BF46
:1031700021F0070108432860FFF7C2FE044600BFA4
:1031800055F8080C800407D4FFF7BAFE001BB0F511
:103190007A7FF5D90120B0BD0020B0BD000000004D
:1031A00080B501F089FA44F2204148F21C12C5F6BC
:1031B0000201C0F600020968C1F30211515C01F07E
:1031C0001F01C84080BD000080B544F2304EC5F6F6
:1031D000020E5EF8083C5EF8081CC1F3051C5EF8A0
:1031E000041CBCF1000FDEF8042019D001F001012D
:1031F00003F003034942022B01EAD2016FF35F316E
:1032000000EE101AB8EE400A10D0012B12D01BB9F4
:103210005EF8301C890611D49FED361A1CE000BF01
:1032200000218160C0E9001180BD00BF9FED301A10
:1032300012E000BF9FED2D1A0EE000BF5EF8301CBB
:1032400049F20002C0F2D032C1F3C10122FA01F109
:1032500001EE101AB8EE411ADEF800109FED263A82
:103260006FF35F2102EE101ADEF80010C1F3462161
:10327000B8EE422A00EE032A00EE10CAB7EE003A7A
:10328000B8EE400A81EE000A32EE031A02EE101A7E
:10329000B8EE422A20EE010A32EE031A80EE011A3D
:1032A000BCEEC11A80ED001ADEF80010C1F3064131
:1032B00001EE101AB8EE411A31EE031A80EE011A2F
:1032C000BCEEC11A80ED011ADEF80010C1F30661F0
:1032D00001EE101AB8EE411A31EE031A80EE010A1F
:1032E000BCEEC00A10EE101A816080BD0024744A42
:1032F00020BCBE4B0024744C0000003900000000CC
:1033000080B544F2384EC5F6020E5EF8103C5EF809
:10331000101C5EF80C2CC1F3053CDEF80410BCF167
:10332000000F15D0C908D20601EAE2716FF35F31D0
:1033300000EE101A03F003010229B8EE400A0DD086
:1033400081B95EF8381C890610D49FED361A1BE04F
:1033500000218160C0E9001180BD00BF9FED301ADF
:1033600012E000BF9FED2D1A0EE000BF5EF8381C82
:1033700049F20002C0F2D032C1F3C10122FA01F1D8
:1033800001EE101AB8EE411ADEF800109FED263A51
:103390006FF35F2102EE101ADEF80010C1F3462130
:1033A000B8EE422A00EE032A00EE10CAB7EE003A49
:1033B000B8EE400A81EE000A32EE031A02EE101A4D
:1033C000B8EE422A20EE010A32EE031A80EE011A0C
:1033D000BCEEC11A80ED001ADEF80010C1F3064100
:1033E00001EE101AB8EE411A31EE031A80EE011AFE
:1033F000BCEEC11A80ED011ADEF80010C1F30661BF
:1034000001EE101AB8EE411A31EE031A80EE010AED
:10341000BCEEC00A10EE101A816080BD0024744A10
:1034200020BCBE4B0024744C00000039000000009A
:1034300080B544F2404EC5F6020E5EF8183C5EF8C8
:10344000181C5EF8142CC1F3055CDEF80410BCF106
:10345000000F15D0C908D20501EAE2716FF35F31A0
:1034600000EE101A03F003010229B8EE400A0DD055
:1034700081B95EF8401C890610D49FED361A1BE016
:1034800000218160C0E9001180BD00BF9FED301AAE
:1034900012E000BF9FED2D1A0EE000BF5EF8401C49
:1034A00049F20002C0F2D032C1F3C10122FA01F1A7
:1034B00001EE101AB8EE411ADEF800109FED263A20
:1034C0006FF35F2102EE101ADEF80010C1F34621FF
:1034D000B8EE422A00EE032A00EE10CAB7EE003A18
:1034E000B8EE400A81EE000A32EE031A02EE101A1C
:1034F000B8EE422A20EE010A32EE031A80EE011ADB
:10350000BCEEC11A80ED001ADEF80010C1F30641CE
:1035100001EE101AB8EE411A31EE031A80EE011ACC
:10352000BCEEC11A80ED011ADEF80010C1F306618D
:1035300001EE101AB8EE411A31EE031A80EE010ABC
:10354000BCEEC00A10EE101A816080BD0024744ADF
:1035500020BCBE4B0024744C000000390000000069
:1035600010B584B0024641F6FF7300209B1A70EB41
:10357000010329DB40F2FF339B1A70EB01034FDAA2
:1035800082F480630B4300F0C38082F400630B433A
:1035900000F0D28082F48052114340F0888144F2DE
:1035A0000041C5F60201086DC0F30232042A00F2A0
:1035B0003E8148F20000C0F2BB00DFE812F0D1000B
:1035C000F500FF007801090147F6FF739B1A70EBC5
:1035D000010343DA82F400430B4300F0C38082F41A
:1035E00080330B4300F0D08082F40022114340F07E
:1035F0005E8144F20040C5F60200816D01F4403165
:10360000B1F5003F00F01A81B1F5803F00F0228152
:10361000002940F00C810068000100F1C88006E13B
:1036200082F480730B4345D082F40072114340F062
:103630003E8144F20041C5F60201086DC0F38212DA
:10364000042A00F2F48048F20000C0F2BB00DFE878
:1036500012F08700AB00B5002E01BF0082F40053CA
:103660000B433DD082F48042114340F0208144F26C
:103670000044C5F60204A06DC0F30270052800F2F4
:10368000D680DFE810F00700F100F900FB0001012F
:10369000030100BF01F010F8216A48F21C12C0F6C5
:1036A0000002C1F30211515C01F01F01C84004B0D7
:1036B00010BD00BF44F20041C5F60201086D00F0E4
:1036C0000702042A00F2B38048F20000C0F2BB00F7
:1036D000DFE812F046006A007400ED007E0000BFD3
:1036E00044F20040C5F60200016DC1F30241052914
:1036F00000F29D80DFE811F006009400D400DE00A7
:10370000E400450004B0BDE8104000F0FDBF00BF7C
:1037100044F20041C5F60201886DC0F34252042A0A
:1037200000F2858048F20000C0F2BB00DFE802F042
:10373000183C46BF500000BF44F20041C5F60201EC
:10374000886DC0F30262042A00F2718048F2000022
:10375000C0F2BB00DFE802F0042832AB3C0000BF3F
:10376000086862E044F20040C5F60200016D01F015
:103770004051B1F1005F53D0B1F1805F54D00029C6
:1037800055D1006883E000BF44F20040C5F6020056
:10379000C16C0068C90348D5000148D501A8FFF7EE
:1037A000AFFD039804B010BD086800013FD501A823
:1037B000FFF7A6FD019804B010BD00BF08688000A7
:1037C00035D501A8FFF734FE019804B010BD00BF45
:1037D000C86C0A68520700F0405208680AD54AB916
:1037E000C0F3C10049F20001C0F2D03121FA00F06B
:1037F00004B010BDC00502D5B2F1805F6FD008687B
:10380000B2F1005F00F400314FF0000004BF47F652
:103810004000C0F27D10002908BF084604B010BD6A
:103820000068000103D522E00068800102D4002076
:1038300004B010BD01A8FFF7C7FC37E0C16C0268F7
:10384000520701F04051026844D5002942D1C2F329
:10385000C100C7E700688000E9D501A8FFF7E8FDCF
:10386000039804B010BD00BF20680001DFD501A897
:10387000FFF746FD1AE000BF206812E0206840070D
:10388000D5D52068ACE700BF20681AE0206847F66D
:1038900040018003C0F27D1101EAE07004B010BD68
:1038A00000688000C3D501A8FFF7C2FD029804B0EC
:1038B00010BD00BF01684907B9D5006890E700BF97
:1038C000006840F60011C005C0F23D0101EAE07059
:1038D00004B010BDD20509D5B1F1805F06D140F624
:1038E0000010C0F23D0004B010BD00BF0068B1F18F
:1038F000005F00F400324FF0000004BF47F64000C4
:10390000C0F27D10002A08BF104604B010BD0000B0
:103910002DE9F0470446C07844F22C480007C5F66C
:10392000020833D5A06E4FEA305103290CD8DFE8E6
:1039300001F003111D2600BFD8F8001041F400313A
:10394000C8F800101BE000BF01266078C0070BD04C
:1039500020E000BF04F10800022103F02DF9064623
:1039600060B16078C00715D1354646E004F1280003
:10397000022103F0B5F906460028F2D1A06ED8F86E
:10398000241021F440110843C8F824000026607870
:10399000C007E9D0A06D04280ED83546DFE800F056
:1039A0000412181E1E0000BFD8F80000354640F46F
:1039B0000030C8F8000011E0012501276078800779
:1039C0001FD452E004F10800002103F0F5F804E0F0
:1039D00004F12800002103F083F905462F461DB1AC
:1039E000607880070DD440E0D8F82400A16D20F065
:1039F000070000250843C8F8240037466078800790
:103A000033D5E06D4FEAB01004280DD8DFE800F0A0
:103A10000412181E1E0000BFD8F8000040F4003049
:103A2000C8F8000012E000BF0125012660784007B9
:103A30001FD455E004F10800002103F0BDF804E0B4
:103A400004F12800002103F04BF905462E461DB174
:103A5000607840070DD443E0D8F82400E16D20F4ED
:103A6000E07000250843C8F824003E46607840070F
:103A700036D5D4F8A8004FEA705004280CD8DFE8F7
:103A800000F00313191F1F00D8F8000040F40030A5
:103A9000C8F8000014E000BF01254FF0010960786C
:103AA000000721D456E000BF04F10800002103F014
:103AB00083F804E004F12800002103F011F9054621
:103AC000A9461DB1607800070ED443E0D8F82C0059
:103AD000D4F8A81020F4600000250843C8F82C0092
:103AE000B1466078000735D5D4F8AC004FEA3060B5
:103AF00004280DD8DFE800F00412181E1E0000BFD5
:103B0000D8F8000040F40030C8F8000012E000BF10
:103B100001250127E078800720D44EE004F1080059
:103B2000002103F049F804E004F12800002103F02B
:103B3000D7F805462F461DB1E07880070ED43CE04B
:103B4000D8F82C00D4F8AC1020F0E0600025084331
:103B5000C8F82C004F46E07880072ED5E06C4FEA7D
:103B6000301003280ED8DFE800F00903130900BF66
:103B7000D8F8000040F40030C8F800002E467DB9A7
:103B800012E000BF012501266078C00619D44CE080
:103B900004F10800022103F00FF805462E461DB17E
:103BA0006078C0060DD440E0D8F82000E16C20F029
:103BB000300000250843C8F820003E466078C00663
:103BC00033D5206E4FEA303004280DD8DFE800F0FE
:103BD0000412181E1E0000BFD8F8000040F4003088
:103BE000C8F8000012E000BF0125012760788006B8
:103BF0001FD44EE004F10800002102F0DDFF04E0D4
:103C000004F12800002103F06BF805462F461DB192
:103C1000607880060DD43CE0D8F82400216E20F4B2
:103C2000E04000250843C8F8240037466078800645
:103C30002FD5606E4FEA3040052809D8DFE800F044
:103C4000040E1404040400BF2E46ADB918E000BFF2
:103C500001250126607840061FD44FE004F10800DA
:103C6000012102F0A9FF04E004F12800012103F082
:103C700037F805462E461DB1607840060DD43DE06C
:103C8000D8F82400616E20F4E02000250843C8F82D
:103C900024003E466078400630D5D4F8B0004FEAA4
:103CA0003070052808D8DFE800F0030D1303030384
:103CB0002F46ADB918E000BF012501276078000646
:103CC00020D442E004F10800012102F075FF04E075
:103CD00004F12800012103F003F805462F461DB129
:103CE000607800060ED430E0D8F82C00D4F8B0107C
:103CF00020F0E04000250843C8F82C0037466078E3
:103D0000000622D5206F58B1B0F1005F0CD0B0F1A1
:103D1000805F2FD1D8F8000040F40030C8F80000D0
:103D20002E469DB908E000BF04F10800012102F011
:103D300043FF05462E464DB9D8F82400216F20F0E8
:103D4000405000250843C8F824003E46E078C007EC
:103D500033D0A06C032813D8DFE800F008021A085B
:103D6000D8F8000040F40030C8F80000A946BDB9FA
:103D70001AE000BF01250126E078C007E9D11CE068
:103D800001254FF00109A07840061AD51CE000BFBC
:103D900004F10800022102F00FFF0546A9461DB1FB
:103DA000A07840060DD50FE0D8F82000A16C20F0D7
:103DB000030000250843C8F82000B146A07840065B
:103DC00002D44F4618E000BFD8F8D40340F4807006
:103DD000C8F8D403FFF794F8064600BFD8F8D40318
:103DE000C00507D4FFF78CF8801B6428F6D903259B
:103DF000032701E02F468DB12078C00761D0E06F26
:103E00004FEAF00005283BD8DFE800F00440460404
:103E1000040400BF002D2E4646D149E0D8F84410D6
:103E2000D4F8B400414011F4407F11D0D8F84410C8
:103E3000D8F8442042F48032C8F84420D8F844200E
:103E400021F4407122F48032C8F84420C8F84410AC
:103E5000B0F5807F40F0DE82FFF752F8064641F26F
:103E6000883A0325032700BFD8F84400800700F1F3
:103E7000CF82FFF745F8801B5045F5D9BCE700BF5E
:103E800001250126207880071FD44CE004F10800AA
:103E9000012102F091FE04E004F12800012102F06A
:103EA0001FFF05462E461DB1207880070DD43AE04D
:103EB000D8F82800E16F20F0380000250843C8F842
:103EC00028003E46207880072DD5A06F052809D808
:103ED000DFE800F0040E1404040400BF2F46ADB95F
:103EE00018E000BF01250127207840071FD44DE0CE
:103EF00004F10800012102F05FFE04E004F1280053
:103F0000012102F0EDFE05462F461DB12078400745
:103F10000DD43BE0D8F82800A16F20F00700002561
:103F20000843C8F828003746207840072ED5D4F833
:103F30009400052808D8DFE800F0030D13030303FD
:103F40002E46ADB918E000BF012501262078800675
:103F500020D451E004F10800012102F02DFE04E01C
:103F600004F12800012102F0BBFE05462E461DB1DA
:103F7000207880060ED43FE0D8F82C00D4F89410B6
:103F800020F0070000250843C8F82C003E462078A2
:103F9000800631D5D4F890004FEA3070052809D852
:103FA000DFE800F0040E1404040400BF2F46ADB98E
:103FB00018E000BF012501272078400620D451E0F9
:103FC00004F10800002102F0F7FD04E004F12800EC
:103FD000022102F085FE05462F461DB120784006DD
:103FE0000ED43FE0D8F82800D4F8901020F0E0403C
:103FF00000250843C8F8280037462078400631D508
:10400000D4F89C004FEAB020052809D8DFE800F07A
:10401000040E1404040400BF2E46ADB918E000BF1E
:10402000012501262078000620D454E004F1080080
:10403000002102F0C1FD04E004F12800022102F099
:104040004FFE05462E461DB1207800060ED442E0F4
:10405000D8F82C00D4F89C1020F4E0500025084338
:10406000C8F82C003E462078000634D5D4F8A000CD
:104070004FEA703005280FD8DFE800F004141A0466
:10408000040400BF2F46E5B12068010727D4C1060C
:104090003ED4000355D475E00125012720680107AF
:1040A000F5D51CE004F10800002102F085FD04E0D4
:1040B00004F12800022102F013FE0546002D2F46D0
:1040C000E2D1D8F82C00D4F8A01020F460400025EC
:1040D0000843C8F82C00374620680107D7D5D4F824
:1040E0008400B0F5805F09D104F12800022102F0BC
:1040F000F7FD002818BF0127D4F88400D8F828104D
:1041000021F440510843C8F828002068C106C0D5F2
:10411000D4F89800B0F5807F09D104F1280002217D
:1041200002F0DEFD002818BF0127D4F89800D8F867
:104130002C1021F440710843C8F82C0020680003BB
:1041400020D5D4F8A400B0F5003F0FD0B0F5803FE3
:1041500006D078BB04F10800002102F02DFD04E038
:1041600004F12800022102F0BBFD05462E4655B998
:10417000D8F82C00D4F8A41020F4403000250843CF
:10418000C8F82C003E46A07840072BD5D4F888000C
:10419000B0F5401F0BD0B0F5001F11D0B0F5801F57
:1041A0002AD1D8F8000040F40030C8F800002F46AB
:1041B000CDB90DE001250126A0784007E6D411E035
:1041C00004F12800012102F08BFD05462F4655B968
:1041D000D8F82800D4F8881020F4401000250843AF
:1041E000C8F828003746A078C0070AD13E462168A3
:1041F000880016D533E000BF01250127A078C0074D
:10420000F4D0206DB0F5803F10D018BBD8F8000076
:1042100040F40030C8F800002E4685B121688800BF
:104220001DD460688A0326D469E000BF04F1080049
:10423000022102F0C1FC0546002D2E46EED1D8F831
:104240002000216D20F4803000250843C8F82000AC
:10425000CCE700BF0125012621688800E1D504F1E3
:104260002800022102F03CFD002818BF0126D4E9F5
:1042700000108A0343D5D4F880206FF0010303EBCC
:104280003223022B0BD34FEA322343B1012B40F0F0
:10429000B980D8F8003043F40033C8F800303DB39B
:1042A000CA022FD4CA0037D48A0240D44A0048D464
:1042B000CA0F55D109025DD4C10766D181076FD4F9
:1042C000410779D4010700F18380C10600F18C8099
:1042D000800607D504F12800022102F001FD002824
:1042E00018BF0125002D18BF01252846BDE8F0871D
:1042F000D8F8283023F440731A43C8F828203546EC
:10430000CA02CFD5D8F82420636F22F000421A43A6
:10431000C8F82420CA00C7D558F81C2CD4F8B830E7
:1043200022F480421A4348F81C2C8A02BED5D8F8E1
:104330002420E36E22F080721A43C8F824204A0039
:10434000B6D558F81C2C22F4004248F81C2CD4F89E
:10435000BC2058F81C3C1A4348F81C2CCA0FA9D0A2
:10436000D8F82020636D22F040521A43C8F820206C
:104370000902A1D5D8F82810D4F88C2021F44001E6
:104380001143C8F82810C10798D004F10800002193
:1043900002F012FC002818BF0546606881078FD51F
:1043A00004F10800012102F007FC002818BF0546AF
:1043B000606841077FF586AF04F10800022102F032
:1043C000FBFB002818BF0546606801077FF57DAF3D
:1043D00004F12800002102F083FC002818BF0546E4
:1043E0006068C1067FF574AF04F12800012102F076
:1043F00077FC002818BF0546606880063FF56AAF65
:1044000070E700BF0125CA027FF54CAF7AE700BF15
:10441000D4F8B4004FF6CF7358F81C2CC0F2FF0349
:1044200000F4407122F47C5203EA10136FF31F3042
:10443000B1F5407F08BF1A43002548F81C2CD8F876
:1044400044100843C8F84400FFF7BBBC000000005C
:104450002DE9F04381B0002800F02A8142F20008E3
:104460000446C5F200288946D8F8000000F00F0085
:1044700088420ED2D8F8000020F00F0040EA090070
:10448000C8F80000D8F8000000F00F00484540F0E0
:104490000F81206844F218474107C5F602070AD584
:1044A00021693A6802F07002914204D93A6822F018
:1044B00070021143396001070AD561697A6802F018
:1044C0007002914204D97A6822F070021143796037
:1044D000C1060AD5A1697A6802F4E062914204D962
:1044E0007A6822F4E0621143796081060AD5E169B5
:1044F000BA6802F07002914204D9BA6822F07002E0
:104500001143B96010F002010AD0E2683B6803F081
:104510000F039A4204D93B6823F00F031A433A6011
:10452000C20746D03968D4E9010221F4706101283C
:1045300041EA0201396009D003280DD0022811D1C7
:1045400057F8181C890312D4B2E000BF57F8181CA2
:10455000C9050CD4ACE000BF57F8181C890106D47B
:10456000A6E000BF57F8181C490740F1A18057F892
:10457000081C21F00701084347F8080CFEF7C0FCAF
:10458000064641F2883500BF57F8080C616800F014
:104590003800B0EBC10F09D0FEF7B2FC801BA84277
:1045A000F2D9032001B0BDE8F08300BF206800F01D
:1045B000020151B1E1683A6802F00F02914204D25F
:1045C0003A6822F00F0211433960D8F8001001F068
:1045D0000F0149450DD9D8F8001021F00F0141EA2B
:1045E0000901C8F80010D8F8001001F00F01494582
:1045F0005ED141070AD521693A6802F07002914202
:1046000004D23A6822F070021143396001070AD5DA
:1046100061697A6802F07002914204D27A6822F0ED
:10462000700211437960C1060AD5A1697A6802F463
:10463000E062914204D27A6822F4E0621143796028
:1046400080060AD5E069B96801F07001884204D299
:10465000B96821F070010843B86000F0B5F8396816
:1046600048F21C12C0F60002C1F30321515C3B6802
:1046700003F00F0301F01F01D25C20FA01F102F0F8
:104680001F0040F20C02C2F2004221FA00F010605A
:1046900040F2040040F20802C2F20040C2F20042BE
:1046A0000068116001B0BDE8F043FEF775BC00BFC3
:1046B000012001B0BDE8F08380B500F085F844F238
:1046C000184148F21C13C5F60201C0F600030A683F
:1046D000C2F303229A5C096801F00F0102F01F0285
:1046E000595C20FA02F201F01F0040F20C01C2F204
:1046F000004122FA00F0086040F20801C2F20041D5
:104700000A6080BD0000000080B500F05DF844F252
:10471000184C48F21C13C5F6020CC0F60003DCF876
:104720000020C2F303229A5CDCF8001001F00F01B4
:1047300002F01F02595CD04040F20C02C2F200426B
:1047400001F01F0120FA01F1116040F20802C2F2EB
:1047500000421060DCF80400C0F30210185C00F0A6
:104760001F0021FA00F080BD80B500F02DF844F262
:10477000184C48F21C13C5F6020CC0F60003DCF816
:104780000020C2F303229A5CDCF8001001F00F0154
:1047900002F01F02595CD04040F20C02C2F200420B
:1047A00001F01F0120FA01F1116040F20802C2F28B
:1047B00000421060DCF80400C0F30220185C00F036
:1047C0001F0021FA00F080BD44F20041C5F602014D
:1047D0000869C0F3C200032810D002282ED098BB6D
:1047E0000868800649F20000C0F2D03058BF704718
:1047F0000968C1F3C101C840704700BF8A6A886A6E
:10480000C0F3051CC86ABCF1000F4B6B22D000F04E
:10481000010002F003024042022A00EAD3006FF3D3
:104820005F3000EE100AB8EE400A15D0C2B9086831
:10483000800619D49FED281A23E000BF47F64000F8
:10484000C0F27D10704700BF40F60010C0F23D007E
:10485000704700BF002070479FED1E1A11E000BF97
:104860009FED1B1A0DE000BF086849F20002C0F27C
:10487000D032C0F3C10022FA00F001EE100AB8EE07
:10488000411A086B9FED153A6FF35F2002EE100A94
:10489000086BC0F34620B8EE422A013000EE032A2E
:1048A00000EE10CAB7EE003AB8EE400A81EE000AF8
:1048B00032EE031A20EE010A01EE100AB8EE411A98
:1048C00080EE010ABCEEC00A10EE100A704700BF6D
:1048D0000024744A20BCBE4B0024744C00000039F4
:1048E00070B3F0B581B00446007844F20046C007CA
:1048F000C5F6020626D12078800740F1C2803069D3
:1049000010F03801B06A43D0182908BF5FEA807000
:104910003ED0E0683168002866D021F019010843D4
:104920003060FEF7EDFA0546306840074CD4FEF7DC
:10493000E7FA401B0228F7D9032001B0F0BD00BF01
:1049400001207047306900F03801B06A102905D0A5
:1049500018290BD100F00300022807D1306880032A
:10496000C9D560680028C6D13CE100BF6068002856
:104970004CD0B0F5A02F61D0B0F5803F62D0306848
:1049800020F480303060306820F480205DE000BF8B
:1049900030684007E06802D5002800F023813168C4
:1049A00021F0190108433060FEF7AAFA054600BF5E
:1049B0003068400708D4FEF7A3FA401B02284FF0E6
:1049C0000300F5D901B0F0BDFEF792FA41F2030100
:1049D00088424BD820697168402821F47C314DD140
:1049E00041F400304CE000BF21F001003060FEF7E0
:1049F00087FA05463068400743D5FEF781FA401B29
:104A000002284FF00300F5D9DCE700BF306820F43E
:104A100080303060306820F480203060FEF770FA1B
:104A2000054600BF306880037FF565AFFEF768FA82
:104A3000401B64284FF00300F4D9C3E7306840F40A
:104A400080203060306840F480303060FEF758FAE3
:104A5000054600BF306880033FF54DAFFEF750FAC2
:104A6000401B6428F6D9032001B0F0BD70682169AD
:104A700020F0FE4040EA016002E000BF41EA003061
:104A800070602078C00654D5306900F03801B06AF3
:104A9000082905D0182919D100F00300012815D1E3
:104AA0003068C00503D5E069802840F09B80FEF7A0
:104AB0001FFA41F2030188421ED8206A716820283B
:104AC00021F0F84132D141F0804031E0E069002826
:104AD000306819D040F080003060FEF711FA0546CA
:104AE0003068C005E3D4FEF70BFA401B02284FF0F4
:104AF0000300F5D966E700BFF068216A20F07C501A
:104B000040EA0160F06014E020F080003060FEF7C1
:104B1000F7F905463068C0050BD5FEF7F1F9401BE3
:104B200002284FF00300F5D94CE700BF41EA80604E
:104B30007060207800073FD42078800656D4207813
:104B4000400769D4656A9DB3306900F038001828C1
:104B500040F0AC80012DB16A306B43D001F003020C
:104B6000A36A9A423ED1C1F30511E26A914239D15A
:104B70000146226B6FF35F21013A914232D1C0F3BB
:104B80004622616B01398A422CD1C0F30642A16BE7
:104B900001398A4226D1C0F30660E16B01398842AF
:104BA00020D1706BA16CC0F3CC00814240F0348105
:104BB000002001B0F0BD00BF60690028706F41D0D7
:104BC00040F001007067FEF79BF90546706F8007A3
:104BD000B2D4FEF795F9401B0228F7D9032001B0A3
:104BE000F0BD00BF012001B0F0BD00BFA0690028EA
:104BF000306849D040F480503060FEF781F90546B6
:104C0000306880049BD4FEF77BF9401B0228F7D95B
:104C1000032001B0F0BD00BFD6F8000440F480705E
:104C2000C6F80004FEF76CF9054600BFD6F800048C
:104C3000C00519D4FEF764F9401B6428F6D9032097
:104C400001B0F0BD20F001007067FEF759F905468C
:104C5000706F80077FF570AFFEF752F9401B022896
:104C60004FF00300F4D9ADE6A068002840D0052835
:104C700058D001285AD0306F20F001003067306FD3
:104C800020F0040055E000BF20F480503060FEF7B3
:104C900037F90546306880047FF551AFFEF730F9EB
:104CA000401B02284FF00300F4D98BE6306820F057
:104CB00080703060FEF724F9022D05460CD100BF4C
:104CC0003068800148D5FEF71BF9401B02284FF0E1
:104CD0000300F5D976E600BF306880017FF568AF44
:104CE000FEF70EF9401B02284FF00300F4D969E6E5
:104CF000306F20F001003067306F20F00400306723
:104D0000FEF7FEF8054641F28837306F80077FF5E1
:104D100019AFFEF7F5F8401BB8424FF00300F4D985
:104D200050E600BF306F40F004003067306F40F055
:104D300001003067FEF7E4F8054641F2883700BF0E
:104D4000306F80073FF5FEAEFEF7DAF8401BB84241
:104D50004FF00300F4D935E604F12807B06A40F2B9
:104D6000F33188438ECF0843591E40EA02104FF4B6
:104D70007E426FF35F21B06202EB47204FF4FE02E8
:104D800080B2E36B0844A16B02EB01414FF0FE429D
:104D900001F4FE0102EB0362084402F0FE41084404
:104DA0003063F06A4FF6F87120F00100F062706B2A
:104DB000A26C884340EAC2007063F06A216C20F064
:104DC0000C000843F062F06A616C20F002000843B6
:104DD000F062F06A40F48030F062F06A40F4003033
:104DE000F062F06A40F48020F062F06A40F0010066
:104DF000F062306840F080703060FEF781F8044661
:104E0000306880013FF5D4AEFEF77AF8001B022827
:104E10004FF00300F4D9D5E5F06A20F00100F0620C
:104E2000FEF76EF80546FEF76BF8A842FBD0706BF4
:104E30004FF6F871A26C884340EAC2007063F06AD2
:104E400040F00100F062002001B0F0BD0000000061
:104E5000411E0020B0EB116F02D00120704700BF4F
:104E60004EF21002F023CEF2000251604EF62351B2
:104E7000CEF200010B7007219060116070470000B6
:104E800090F83C20012A01D102207047B0B5CB68D0
:104E900048F2FF7ED1E901C223F47C5322F4705220
:104EA000CFF6F07E1A430CEA0E03D1F800C042EAB6
:104EB000030E2CF477230A6943EA0E0322F47622C8
:104EC000D0F800E01A434B691A438B6A22F4742C21
:104ED00023F470238A6940F200454EF48064C4F2E2
:104EE000010543EA0C03AC4243EA02430FD100251B
:104EF00023F07C724B6ACFF6F045CC6905EA035388
:104F00001A4324F00073096A1A4342EA0103CEF8F7
:104F10004430002180F83C10BDE8B040084670479E
:104F200090F83C20012A4FF002025ED0B0B580F824
:104F30003D2040F2004C0268C4F2010C42F4806350
:104F400063455368D2F808E002BF23F470034C684D
:104F5000234341F2FF740D68C4F2000423F0700390
:104F6000A24243EA050353600CDC40F2FF73C4F233
:104F700000039A4216DCB2F1804F29D040F2004380
:104F800018E000BF40F2FF33C4F201039A4217DC7D
:104F900041F60003C4F200039A4219D00023C4F280
:104FA000010309E040F60003C4F200039A420FD067
:104FB00040F60043C4F200039A4209D00DE000BF5E
:104FC00044F20003C4F201039A4201D0624504D1C5
:104FD0002EF080038968194391600022012180F836
:104FE0003D1080F83C20BDE8B040104670470000FE
:104FF00060B310B5044690F83D0028B9002084F84D
:105000003C00204600F024F8022084F83D0020688F
:10501000211D01F0E9FF012084F8480084F83E00DA
:1050200084F83F0084F8400084F8410084F842008E
:1050300084F8430084F8440084F8450084F846006E
:1050400084F8470084F83D00002010BD012070471F
:1050500080B586B040F6FF320068C4F2000200213D
:1050600090420591CDE90311CDE901111CDD40F21B
:10507000FF31C4F20101884232DC40F60041C4F243
:105080000001884244D00021C4F2010188427AD153
:1050900044F2E840C5F60200816841F001018160F8
:1050A000806800F001006CE0B0F1804F3CD040F22D
:1050B0000041C4F20001884268D040F60001C4F209
:1050C000000188425FD144F2E840C5F60200016861
:1050D00041F004010160006800F0040051E000BFED
:1050E00040F20041C4F2010188423FD044F2000185
:1050F000C4F20101884246D144F2E840C5F60200FC
:10510000816841F480318160806800F4803038E04B
:1051100044F2E840C5F60200016841F00801016070
:10512000006800F008002CE044F2E840C5F60200F8
:10513000016841F001010160016801F00101009185
:10514000009950F8081C41F0010140F8081C50F883
:10515000080C00F00100009000982020019002202F
:1051600002900020CDE9030001202FE044F2E84046
:10517000C5F60200816841F002018160806800F09C
:1051800002000090009806B080BD00BF44F2E840E5
:10519000C5F60200016841F002010160016801F0FA
:1051A00002010091009950F8081C41F0010140F8FB
:1051B000081C50F8080C002100F001000090009835
:1051C0004020019002200290CDE9031105900020BB
:1051D000C5F6020001A9FDF7B7FD06B080BD0000CD
:1051E00090F83C20012A4FF0020200F0AA8080B51E
:1051F00080F83D208822D0F800C0CFF6CE72DCF8CF
:1052000008301A40CCF808200B686F2B0EDDB3F184
:10521000101F37DAB3F5005F46DA702B00F0948088
:10522000B3F5805F00F08480D8E000BF2F2B33DD22
:105230004F2B3FDC302B6FD0402B40F0CF80D1F88C
:1052400004E0C968DCF82030DCF8202022F00102FC
:10525000CCF82020DCF8182022F0F00242EA0111FC
:1052600023F00A02CCF8181042EA0E01CCF8201004
:105270004FF68872DCF80810CFF6CF721140473134
:1052800054E000BF2F21C0F210018B423ADCB3F191
:10529000101F41D020213BE0002B18BF102B3BD02A
:1052A000202B39D09AE000BF62D0B3F5801F33D0F5
:1052B00094E000BF502B6FD0602B40F08F80D1F86E
:1052C00004E0C968DCF82030DCF8202022F010026D
:1052D000CCF82020DCF8182022F4704242EA013198
:1052E00023F0A002CCF8181042EA0E11CCF82010DE
:1052F0004FF68872DCF80810CFF6CF721140673194
:1053000014E000BF3021C0F210018B4204D04021D4
:10531000C0F210018B4261D14FF68872DCF80810A0
:10532000CFF6CF721140194341F00701CCF80810B5
:105330000022012180F83D10002180F83C10BDE8DA
:1053400080401046704700BFD1E901E3C968DCF82E
:10535000082043EA0E0322F47F4243EA012111436D
:10536000CCF80810DCF8081041F07701DEE700BF48
:10537000D1E901E3C968DCF8082043EA0E0322F40E
:105380007F4243EA01211143CCF80810DCF80810F1
:1053900041F48041CAE700BFD1F804E0C968DCF8F5
:1053A0002030DCF8202022F00102CCF82020DCF8AC
:1053B000182022F0F00242EA011123F00A02CCF890
:1053C000181042EA0E01CCF820104FF68872DCF873
:1053D0000810CFF6CF7211405731A7E70122A8E796
:1053E00080B586B040F6FF320068C4F200020021AA
:1053F00090420591CDE90311CDE9011122DD40F282
:10540000FF31C4F20101884244DC40F60041C4F29D
:10541000000188425CD00021C4F20101884240F0C2
:10542000AB8044F2E040C5F60200016841F00101A2
:105430000160006800F00100009000984FF4E06007
:1054400064E000BFB0F1804F52D040F20041C4F29E
:105450000001884274D040F60001C4F20001884285
:1054600040F08A8044F2E040C5F60200016841F055
:10547000080101600068022100F008000090009817
:105480004FF4805001900020C5F6020000F5406006
:1054900069E000BF40F20041C4F20101884239D006
:1054A00044F20001C4F20101884265D144F2E040B7
:1054B000C5F60200016841F00101016000680421A5
:1054C00000F00100009000980820019048E000BF23
:1054D00044F2E040C5F60200016841F001010160BC
:1054E000006800F0010000900098012036E000BF45
:1054F00044F2E040C5F60200016841F0010101609C
:10550000006800F001000090009802200121019045
:1055100026E000BF44F2E040C5F60200016841F019
:10552000040101600068032100F00400009000986D
:10553000402001900020C5F6020000F5006012E056
:1055400044F2E040C5F60200016841F0010101604B
:10555000006800F001000090009880200190022176
:105560000020C5F60200059101A902220292002244
:10557000CDE90322FDF7E8FB06B080BD0000000086
:1055800081B10A1F8B0743EA9202032A12D8DFE88F
:1055900002F003171F2500BF00F13F031B78012B0A
:1055A00013D120E090F83E20012A0ED1022280F88B
:1055B0003E2032E000F143031B78012B05D112E0BD
:1055C00000F140031B78012B0DD00120704700BF74
:1055D00000F141031B78012B05D0F6E700F14203EF
:1055E0001B78012BF1D1032A08D8DFE802F0030B66
:1055F0000F1300BF022280F83F200EE0022280F845
:1056000043200AE0022280F8402006E0022280F8CF
:10561000412002E0022280F84220026801F01F00CF
:10562000012101FA00F0116A814311624FF6FF7106
:10563000C4F200018A42116A40EA0100106219DCDA
:1056400040F2FF70C4F2000082422FDD40F60000FD
:10565000C4F20000824243D040F60040C4F2000091
:1056600082423DD041F60000C4F20000824237D0B1
:1056700048E000BF43F6FF700021C4F20100C4F20D
:105680000101824244F20000C4F2010018DD8242AE
:105690001ED044F60003C4F201039A4218D044F22B
:1056A0000043C4F201039A4212D02BE0B2F1804FC2
:1056B00016D040F20040C4F20000824210D021E037
:1056C0008A4205D040F20043C4F201039A4219D144
:1056D000536C8A4243F40041516418BF82420BD19B
:1056E00007219068C0F2010101400020062918BF7F
:1056F000B1F5803F06D1704740F20040C4F201008E
:105700008242EDD0106840F0010010600020704728
:1057100050B3B0B5044690F83D000D4628B90020BE
:1057200084F83C00204600F023F8022084F83D0075
:105730002068211D01F058FC2068016821F0080153
:105740000160016829430160012084F8480084F861
:105750003E0084F83F0084F8440084F8450084F853
:105760003D000020B0BD00BF0120704700000000D8
:10577000704700000000000090F83C30012B01D180
:10578000022070474FEAB202052A33D82DE9F041D2
:10579000DFE812F0060036007400B200D800FE0008
:1057A000036843F6FF76C4F201061C6AB3421A6A24
:1057B00024F0020422F001021A621A46D3F804C04F
:1057C00052F818EF8D6844EA0504D1F8008040F3E0
:1057D000058144F20007C4F20107BB4200F00981D1
:1057E00044F60007C4F20107BB4200F0028144F214
:1057F0000047FAE00121002280F83C20084670476B
:10580000036840F2004E43F48067C4F2010E1C6A44
:1058100077451A6A24F0200422F010021A621A4610
:105820005D6852F818CF8E6844EA061407D1CE6836
:105830006FF0400724F0C00407EA0616344343F62D
:10584000FF76D1F80080C4F20106B34240F3EC8049
:1058500044F20007C4F20107BB4200F0EC8044F6BA
:105860000007C4F20107BB4200F0E58044F20047A4
:10587000C4F20107BB4200F0DE80E3E0036840F2BF
:10588000004E43F48067C4F2010E1C6A77451A6A21
:1058900024F4007422F480721A621A465D6852F889
:1058A0001CCF8E6844EA062407D1CE6840F2FF4739
:1058B000360224F44064BE43344343F6FF76D1F805
:1058C0000080C4F20106B34240F3D48044F20007E2
:1058D000C4F20107BB4200F0D48044F60007C4F2D2
:1058E0000107BB4200F0CD8044F20047C4F201073B
:1058F000BB4200F0C680CBE0036843F6FF77C4F2FA
:105900000107D3F820C0BB421A6A22F480521A62FF
:105910001A465C6852F81C6F0D68D1F808E040F335
:10592000CF8044F20007C4F20107BB4200F0D380ED
:1059300044F60007C4F20107BB4200F0CC8044F2F9
:105940000047C4E0036843F6FF77C4F20107D3F8C9
:1059500020C0BB421A6A22F480321A621A465C687E
:1059600052F8546F0D68D1F808E040F3D38044F248
:105970000007C4F20107BB4200F0D78044F60007DD
:10598000C4F20107BB4200F0D08044F20047C8E0F7
:10599000036843F6FF77C4F20107D3F820C0BB4287
:1059A0001A6A22F480121A621A465C6852F8546F1E
:1059B0000D68D1F808E040F3D98044F20007C4F242
:1059C0000107BB4200F0DD8044F60007C4F2010786
:1059D000BB4200F0D68044F20047CEE00027C4F27C
:1059E0000107BB4205D040F20047C4F20107BB42A9
:1059F00005D1CF6824F00C0427F004073C43B342E0
:105A000040F3E28044F20006C4F20106B34200F023
:105A1000E68044F60006C4F20106B34200F0DF80DF
:105A200044F20046D7E000BF0027C4F20107BB42A2
:105A300001D0734506D1D1E90576374325F4406698
:105A400046EA870548F6FF475D60CFF6FF6707EA3D
:105A50000C0747EA08279F614F6809699F631C622A
:105A60009F6947F400679F619F6927F480679F6182
:105A7000A7E000BF0027C4F20107BB4201D0734575
:105A800006D1D1E90576374325F4405646EA071595
:105A90004FF68C775D60CFF6FE7707EA0C0747EA92
:105AA0000807DF614F680969DF631C62DF6947F03F
:105AB0000807DF61DF6927F00407DF61ADE000BFA1
:105AC0000027C4F20107BB4205D040F20047C4F2F0
:105AD0000107BB4204D14F6924F4804444EA87148F
