:020000040800F2
:1000000030120024AD020008E182000811790008D6
:10001000D9820008610C00087997000800000000F0
:100020000000000000000000000000004185000802
:100030004912000800000000E98200084985000814
:10004000CB020008CB020008CB020008CB0200085C
:10005000CB020008CB020008CB020008CB0200084C
:10006000CB020008CB020008CB020008690C000894
:10007000590D0008CB020008CB020008CB02000893
:10008000CB020008CB020008510C0008CB0200088C
:10009000CB020008CB020008CB020008CB0200080C
:1000A000CB020008CB020008CB020008CB020008FC
:1000B000CB020008CB020008CB020008CB020008EC
:1000C000CB020008CB020008CB020008CB020008DC
:1000D000CB02000869970008CB020008CB02000899
:1000E000CB020008CB02000800000000CB02000891
:1000F000CB020008CB020008CB020008CB020008AC
:10010000CB020008CB020008CB020008CB0200089B
:10011000CB020008CB020008CB020008CB0200088B
:10012000CB020008CB020008CB020008CB0200087B
:10013000CB020008CB020008CB020008CB0200086B
:1001400000000000000000000000000000000000AF
:10015000CB020008CB020008CB020008CB0200084B
:10016000CB020008CB020008CB020008CB0200083B
:10017000CB020008CB020008CB020008CB0200082B
:10018000CB020008CB020008CB020008CB0200081B
:10019000CB020008CB020008CB020008CB0200080B
:1001A000CB020008CB020008CB020008CB020008FB
:1001B000CB020008CB020008CB020008CB020008EB
:1001C000CB020008CB020008CB020008CB020008DB
:1001D000CB020008CB020008CB020008CB020008CB
:1001E000CB020008CB020008CB020008CB020008BB
:1001F000CB020008CB020008CB020008CB020008AB
:10020000CB020008CB020008CB020008CB0200089A
:10021000CB020008CB020008CB020008CB0200088A
:10022000CB020008CB020008CB020008000000004F
:10023000CB020008CB02000800000000CB0200083F
:10024000CB020008CB020008CB020008CB0200085A
:10025000CB020008CB020008CB020008CB0200084A
:10026000CB020008CB020008CB020008CB0200083A
:10027000CB020008CB020008CB02000800000000FF
:10028000CB020008CB020008CB02000800000000EF
:1002900000000000CB020008DFF80CD000F04CFAA0
:1002A0000048004781970008301200240748804723
:1002B0000748804707480047FEE7FEE7FEE7FEE7FE
:1002C000FEE7FEE7FEE7FEE7FEE7FEE76112000855
:1002D00069860008990200082DE9F05F05460020B4
:1002E00092469B4688460646814640241BE02846A7
:1002F00041464746224600F057F853465A46C01A30
:10030000914110D311461846224600F03EF82D1AAE
:1003100067EB01084F4622460120002100F035F826
:1003200017EB00094E41201EA4F10104DFDC484612
:1003300031462A464346BDE8F09FD2B201E000F8BC
:10034000012B491EFBD270470022F6E710B5134679
:100350000A4604461946FFF7F0FF204610BD30B5A7
:100360000B46014600202022012409E021FA02F573
:100370009D4205D303FA02F5491B04FA02F528440D
:10038000151EA2F10102F1DC30BD202A04DB203A67
:1003900000FA02F1002070479140C2F1200320FAD8
:1003A00003F3194390407047202A04DB203A21FAD6
:1003B00002F00021704721FA02F3D040C2F120027E
:1003C00091400843194670472DE9FE4F804681EA67
:1003D0000300C00F0C46009021F0004123F00045BF
:1003E000B8EB0200A94105D24046214690461C4682
:1003F0000B46024623F00040104347D0270DC7F3B9
:100400000A00C3F30A510290401A019040286BDAA7
:10041000C3F3130040F4801B0098924620B10023E0
:10042000D2EB030A63EB0B0B01985946C0F1400273
:100430005046FFF7AAFF06460D4650465946019A18
:1004400000F092F910EB08006141002487EA115294
:1004500084EAE7731A4340D0009A62B3019A012AF2
:100460004FEA075215DC001B61EB02014FF000421E
:1004700002EA0752CDE90042001C41F580113246E4
:100480002B4600F092F903B0BDE8F08F40462146BC
:10049000F9E7001B61EB0201001C41F58013001815
:1004A0005B412018A2F5001747EB030140EAD57025
:1004B000B6196D4111E06D084FEA360645EAC07580
:1004C0004FEA0752001B61EB0201001C41F580114D
:1004D00049084FEA30000019514132462B4603B01B
:1004E000BDE8F04F00F052B900980122400000230F
:1004F000D0EB020263EBE073009821464FEAE07410
:10050000B8EB000061EB0401E9E783F000435BE72F
:1005100081F0004158E72DE9FE4F81EA030404F021
:10052000004421F0004100944FF0000B23F0004301
:1005300050EA01045ED052EA03045BD0C3F30A54CC
:10054000C1F30A552C44A4F2F3340194A0FB0254E5
:10055000C1F3130141F48011C3F3130343F4801377
:1005600001FB024400FB034E840A970A44EA8154CB
:1005700047EA8357A4FB076802958D0A05FB0785A8
:100580004FEA932C04FB0C542705029D4FEA0658B2
:1005900047EA1637B5EB08056EEB070C870E920E8F
:1005A00047EA811742EA8312A7FB0201B6EB0B016F
:1005B00064EB00042B0D43EA0C335E1844EB1C5033
:1005C000DA465146E7FB0201C5F313044FEA0B3349
:1005D00043EA14534FEA0432019C43EA0603A4F1B0
:1005E0000C040294009CCDE900B400F0DEF803B0E6
:1005F000BDE8F08F00200146F9E72DE9F04D81EAD2
:10060000030404F0004B21F0004514464FF0000AAB
:1006100023F0004150EA050220D054EA01021DD027
:10062000C5F30A570246C5F31303C1F31300C1F320
:100630000A5640F4801543F48013A7EB0608101BFC
:10064000D64608F2FD3873EB050002D308F1010825
:1006500001E092185B41B8F1000F03DA0020014677
:10066000BDE8F08D00204FF48011064684460EE070
:10067000171B73EB050705D3121B63EB050306433A
:100680004CEA010C49084FEA300092185B4150EAED
:100690000107EDD152EA030012D082EA040083EA96
:1006A0000501084305D0101BAB4106D201220023EF
:1006B00006E000224FF0004302E06FF00102531009
:1006C0001AEB06004CEB085110EB0A0041EB0B0152
:1006D000BDE8F04D00F05AB8C1F30A52C1F313015E
:1006E00040F2FF3341F480119A4202DA00200146C1
:1006F000704740F233439A42A2F2334202DC524244
:10070000FFF752BEFFF741BE30B5041E71F1000481
:1007100004DB4FF00044404264EB0101141E73F10E
:10072000000405DB1C464FF00043524263EB040318
:10073000994208BF904230BD1CB509480090094855
:1007400001900546009C06E0E06840F0010394E853
:10075000070098471034AC42F6D3FFF7A1FD000024
:10076000FCA300081CA40008202A06DBCB17203AB3
:1007700041FA02F043EAE07306E041FA02F3D040A6
:10078000C2F12002914008431946704710B5141E6B
:1007900073F1000408DA401C41F1000192185B413A
:1007A0001A4301D120F0010010BD2DE9F04D924611
:1007B0009B4611B1B1FA81F202E0B0FA80F2203228
:1007C0009046FFF7E2FD04460F4640EA0A0041EA80
:1007D0000B0153465A46084313D0114653EA010011
:1007E00019D0C8F140025046FFF7DEFD05460E461F
:1007F000504659464246FFF7C8FD084305D0012040
:1008000004E020463946BDE8F08D0020054346EA65
:10081000E0762C4337430A986305E40AA0EB08000E
:100820000022FD0A44EA47540A3002D5002001465E
:10083000E9E7010510196941DDE908450019694139
:10084000BDE8F04DA2E730B58C1810F8012B12F07E
:100850000F0301D110F8013B120906D110F8012B4A
:1008600003E010F8015B01F8015B5B1EF9D101E0C8
:1008700001F8013B521EFBD1A142E6D3002030BD5E
:10088000B0B50446006842F2001140F48070C4F232
:100890000201884218D142F20830C4F20200006816
:1008A00010F4403F18D004F03FFE61680546B1F5F2
:1008B000803F05D0B1F5403F2CD0B1F5003F2AD1A3
:1008C000080CB5FBF0F526E046F20830C5F602004C
:1008D000006810F4403FE6D14FF40020002103F0FF
:1008E00077FD61680546A1F580228B0343EA9242B9
:1008F0000A2A10D8DFE802F006060606060650525D
:10090000545658006FF0010000EA5140B5FBF0F575
:1009100001E000BFAD0803F023FA41F20301884271
:100920000ED8206842F60151C0F231118D42816823
:100930002CBF41F4807121F480718160B0BD00BF93
:100940004BF62140C0F2BE00854205D82068816880
:1009500021F440718160B0BD47F64100C0F27D10C6
:10096000854207D820680122816862F309218160ED
:10097000B0BD00BF20684FF28101C0F2FA218D4264
:10098000816805D8022262F309218160B0BD00BFF1
:1009900041F440718160B0BD2D09BCE76D09BAE733
:1009A000AD09B8E7ED09B6E72D0AB4E7000000008D
:1009B00070B5044600688268836802F0040203F0A0
:1009C0000803D2186CD0C268920121D5627D012A39
:1009D0001ED1227D012A1BD10168490613D44DF690
:1009E0000441C0F20C01043950D0026852065CBFC9
:1009F00002685FEA426206D4026852065CBF02687F
:100A00005FEA4262EFD540210160012106E000BFAC
:100A1000022903D10221082612E000BF8268520792
:100A20000AD58268920707D44FF6C0738268C7F66A
:100A3000FF731A401032826001294FF0040610D073
:100A4000826812070AD58268920707D44FF6C073EE
:100A50008268C7F6FF731A4020328260032908BFFC
:100A60000C2603F085F921688968314218D00546C3
:100A700003E000BF8068304212D003F079F9401BD8
:100A800006282068F6D381683142F3D0606D40F0CB
:100A900010006065A06D40F00100A065012070BDF0
:100AA000002070BD000000000146806B426D12F016
:100AB000500F426D06D0D20610D4C06CC26C0846EE
:100AC000104700BF42F40071416501680A681207CF
:100AD000CA6805D4910709D000F02EBF00F034BFDA
:100AE00012F4406FF8D1C9688904F5D4416D21F43E
:100AF00080714165416DC904EED4416D41F0010141
:100B0000416500F019BF0000806B416D41F040016C
:100B10004165816D41F00401816500F015BF000061
:100B2000806B00F00DBF0000B0B5016804468A6814
:100B30008868C0074FF0000031D012F0020218BFE1
:100B4000B0BD886800F00D0001281FD14FF6C072BB
:100B50008868C7F6FF721040023088600320086082
:100B600003F006F921688968C90701D10020B0BDEA
:100B7000054602E08068C007F8D003F0F9F8401B92
:100B800003282068F6D38168C907F3D0606D40F070
:100B900010006065A06D40F00100A0650120B0BDAF
:100BA000F0B581B0044600688168C9074CD14FF6A2
:100BB000C0778168C7F6FF7707F17F0211420BD03B
:100BC000606D40F010006065A06D40F00100A06510
:100BD000012001B0F0BD00BF8168394041F0010142
:100BE000816003F0C5F842F2000346F20836C4F211
:100BF0000203216803F5807203F54275C5F602060B
:100C0000914208BF2E46994208BF2E46994205469A
:100C1000306816D0914214D110F01F0014D110E0AA
:100C20008868C00704D18868384040F001008860B7
:100C300003F09EF8401B2168032802D30868C00710
:100C4000BED00868C007EBD0002001B0F0BD0000A6
:100C500040F62C20C2F2004000F07ABE00000000F6
:100C6000FEE7000000000000F0B581B040F69026DD
:100C700040F25845C2F20046C4F2020505F1600791
:100C800040F620243068C2F20044B84208D945F248
:100C90000040C5F60200006880061BD522E000BFB8
:100CA000A84205D955F8540C800613D51AE000BFA8
:100CB0005821C4F2020101F16002904204D9D1F836
:100CC000A803800606D50DE0884207D951F8540CD8
:100CD000800607D40120207001B0F0BD51F8580CF7
:100CE0008006F7D540F62C20C2F2004001F0B8F99A
:100CF0003068B84206D945F200402021C5F602000E
:100D000041601AE0A84203D9202045F84C0C14E0B9
:100D10005821C4F2020101F16002904204D920205E
:100D200045F8500C09E000BF884203D9202041F863
:100D30004C0C02E0202041F8500C40F69020C2F20A
:100D4000004001F025FE012020700120207001B03C
:100D5000F0BD00000000000040F6083140F2044001
:100D6000C2F20041C4F2020000F1B40209689142EB
:100D70000CD945F20040C5F60200016809052DD4E2
:100D800040F60830C2F2004001F002BE00F1540209
:100D9000914207D901680905F2D54FF400618160DD
:100DA0001FE000BF40F2580CC4F2020C0CF16003CB
:100DB000994205D9DCF8A8231205E1D50CE000BF63
:100DC000614505D95CF8542C1205D9D504E000BF63
:100DD0005CF8582C1205D3D599420FD94FF4006115
:100DE000416040F628200121C2F20040017040F627
:100DF0000830C2F2004001F0CBBD00BF4FF40060EC
:100E0000614503D94CF84C0CEBE700BF4CF8500C93
:100E1000E7E700000000000040F20F42D0F800C0F9
:100E2000C4F20202944511DC6F22C4F2020294451E
:100E300022DC3F22C4F20202944539DC1022C4F2C3
:100E4000020294455AD0282254E000BF40F26F427B
:100E5000C4F2020294451BDC40F23F42C4F202029B
:100E600094452DDC40F21042C4F20202944545D074
:100E700040F228423EE000BF9F22C4F202029445A5
:100E800028DC7022C4F20202944537D0882231E077
:100E900040F29F42C4F20202944523DC40F27042C9
:100EA000C4F20202944529D040F2884222E000BFF9
:100EB0004022C4F20202944520D058221AE000BF1A
:100EC00040F24042C4F20202944517D040F2584228
:100ED00010E000BFA022C4F2020294450ED0B82256
:100EE00008E000BF40F2B842C4F20202944505D0C7
:100EF00040F2A042C4F20202944517D10CF0F8026D
:100F00004AF6AB23103ACAF6AA23A2FB03310AA37E
:100F10005F2AC1F302115B5C40F2FF312CEA010150
:100F2000C36588BF04318165084670472CF0FF0116
:100F300081650846704700BF0006101600061016AF
:100F400070B540F26F44D0F800C0C4F20204D0F88B
:100F500058E0A4451ADC9F25C4F20205AC4533DCF9
:100F60005725C4F20205AC455ADC1025C4F202052F
:100F7000AC4500F098802825C4F20205AC4500F08D
:100F800092804025C4F202058AE000BF45F22F4559
:100F9000C5F60205AC452DDC40F2B745C4F20205AA
:100FA000AC454BDC40F27045C4F20205AC457AD04A
:100FB00040F28845C4F20205AC4574D040F2A04529
:100FC000C4F202056CE000BF40F22745C4F20205FE
:100FD000AC4543DCA025C4F20205AC4563D0B8257E
:100FE000C4F20205AC455ED040F21045C4F20205E1
:100FF00056E000BF45F26B45C5F60205AC453FDC47
:1010000045F23045C5F60205AC454CD045F24445A5
:10101000C5F60205AC4546D045F258453EE000BF56
:101020005825C4F20205AC453DD07025C4F2020536
:10103000AC4538D08825C4F2020531E040F2B8450D
:10104000C4F20205AC452ED045F20845C5F60205AE
:10105000AC4528D045F21C4520E000BF40F22845B1
:10106000C4F20205AC451ED040F24045C4F2020570
:10107000AC4518D040F25845C4F2020510E000BF5C
:1010800045F26C45C5F60205AC450CD045F29445D9
:10109000C5F60205AC4506D045F28045C5F6020509
:1010A000AC4540F0D080456EC66E002E866E6E60F8
:1010B0001CBFD0E91C566E60A44515DC9F24C4F209
:1010C0000204A4452CDC5724C4F20204A44551DCDC
:1010D0001024C4F20204A4457AD02824C4F20204E5
:1010E000A44575D040246FE045F22F44C5F60204B4
:1010F000A44529DC40F2B744C4F20204A44545DC0F
:1011000040F27044C4F20204A44561D040F2884425
:10111000C4F20204A4455BD040F2A04454E000BFF6
:1011200040F22744C4F20204A4453FDCA024C4F2E8
:101130000204A4454CD0B824C4F20204A44547D00C
:1011400040F2104440E000BF45F26B44C5F6020493
:10115000A44555DC45F23044C5F60204A44561D0EF
:1011600045F24444C5F60204A4455BD045F2584418
:1011700054E000BF5824C4F20204A44528D07024CF
:10118000C4F20204A44523D088241DE040F2B844F0
:10119000C4F20204A4451BD045F20844C5F602047B
:1011A000A4453FD045F21C4438E000BF40F228443B
:1011B000C4F20204A4450BD040F24044C4F202043D
:1011C000A44505D040F25844C4F20204A4453AD1E3
:1011D0008468C06D00F01F003F2505FA00F0CEF8CE
:1011E0000800DCF80000402C20F48020CCF800003F
:1011F000CCF8043023D1CCF80820CCF80C1070BD0A
:1012000045F26C44C5F60204A4450BD045F2804477
:10121000C5F60204A44505D045F29444C5F602047F
:10122000A44510D1C46D012504F01F04806805FA9F
:1012300004F4CEF804404028CCF80430DBD0CCF8DD
:101240000810CCF80C2070BD7047000000000000B2
:10125000EFF3108072B600BFFEE700000000000050
:1012600044F60400C5F60200816841F00201816085
:101270000168890409D4016889045CBF01685FEAD8
:10128000814102D401688904F2D570470000000052
:1012900070B582B000230193044690F850000128F5
:1012A00002D1022002B070BD012084F85000204617
:1012B00015460E46FFF738FC616D18B141F010017C
:1012C0004CE000BF41F202124FF6C0739143C3F6E7
:1012D000FE7302316165216806F4803605F08045B1
:1012E0008A682E4413404FF2FF72C2F2C352334455
:1012F00003F100438B608B68B3F1FF3F2ADC019B55
:1013000001330193019B93421DD88B68B3F1FF3FDA
:1013100020DC019B01330193019B934213D88B681E
:10132000B3F1FF3F16DC019B01330193019B934214
:1013300009D88B68B3F1FF3F0CDC019B01330193AB
:10134000019B9342D7D9606D40F0100020F002015C
:10135000012003E0616D012262F30101616500215A
:1013600084F8501002B070BD70470000000000000B
:1013700070470000000000007047000000000000FF
:1013800070470000000000007047000000000000EF
:1013900090F85020012A01D102207047B0B582B0E8
:1013A00042F2083200230193C4F202020093A2F534
:1013B00042740368A34227D14FF6006E4FF60055E2
:1013C000CFF6FF7ECFF6FF7552F80E4053592343F8
:1013D0005B0719D4D1F800C01368BCF1000F23F4E7
:1013E00040441FD04B6823431360535952F80E50AA
:1013F0002B43DB0722D1136840F61F75AB43896886
:10140000194341EA0C0118E0416D41F020014165AA
:101410000121002280F8502002B0BDE8B04008460B
:10142000704700BF1460515952F80E301943C90774
:1014300004D1116840F61F73994311600021E8E759
:10144000F0B581B00022009290F85020012A03D11B
:101450000221084601B0F0BD0768012380F8503032
:10146000BB685B0700F196810C684FF6FF7CB4F116
:10147000FF3FC0F20F0C4FEA94630FDD94FAA4F221
:1014800014EA0C0FB2FA82F208BFA20E012402F095
:101490001F0204FA02F2FC692243FA614A681F261D
:1014A00003F01F03C2F3012402F01F02964007EB72
:1014B000840403FA02F2256B25EA0606324322630E
:1014C000BA68BB6802F0040203F00803D21840F0C7
:1014D00096800A6807258E68C2F34063C2F30452FF
:1014E00007EB830395405C6906FA02F224EA0505DE
:1014F0002A435A6141F20002C5F60042126802F026
:101500007042B2F1805F33D14A69FB680E2606EA69
:10151000530302FA03F30C69042C39D007F160027B
:101520000E6806F0F84652F82450334305F00045A3
:101530002B4342F824300B694E7E52F82350012E83
:1015400025F0004508BF05F1004542F823500A7E0A
:101550000B693E69013A03F01F03B2FA82F226F4E6
:10156000F0465209D2029A4032433A6147E000BF46
:10157000FA684B69FE68D2064FEA560402D404F0BA
:101580000E0201E004F0080293400C69042CC5D15E
:101590003A6E0B6802F0F8429B069A4218D13A6EF6
:1015A00022F000423A667A6E02F0F8429A4214D073
:1015B000BA6E02F0F8429A4218D1BA6E22F0004296
:1015C000BA66FA6E02F0F8429A4214D017E000BFF1
:1015D0007A6E02F0F8429A42EAD17A6E22F0004224
:1015E0007A66BA6E02F0F8429A42E6D0FA6E02F0DB
:1015F000F8429A4203D1FA6E22F00042FA66BA68C3
:10160000D20779D1D1F800E00023C968D7F8C0200B
:101610000EEA0C04C4F25273A24301F018042CFA2F
:1016200004F603F52D0506EA0E06A94246EA020174
:10163000C7F8C0105DD142F20011C4F202018F421E
:1016400026D042F20001C4F202018F423CD11F2198
:10165000C1F2F0418E4540F3C38040F2FF71C2F603
:1016600030618E4540F3A98040F60001C2F630613A
:101670008E4500F04F8141F20001C3F260218E459A
:1016800000F038810021C4F221318E451DD047E1A0
:101690001F21C1F2F0418E4500F388800721C0F67A
:1016A00090418E4500F3AA800221C0F230418E4560
:1016B00000F0A1800421C0F660018E4540F0308129
:1016C0004023C1F6201300E0002393FAA3F143F670
:1016D000C132B1FA81F1C0F20A0213424FF00102A5
:1016E00008BF990E01F01F0102FA01F1FA691143D6
:1016F000F961BEF1FF3F01DD002150E042F200013F
:1017000046F2083CC4F20201C5F6020C01F58072F3
:1017100001F542739742624608BF1A468F4242F271
:10172000001408BF1A4647F48073C4F20204A342AF
:10173000136827D18A68D1F808111143C90729D144
:10174000002103F0E074CCF684318E4508BF13F419
:10175000000165D00021CCF252718E4540F0A2808C
:101760000021B1EB146F40F09D80ACF542718F42C7
:10177000C2D1DCF8001021F0E071214341F080710A
:10178000A7E000BF4FF60051CFF6FF715CF80110E3
:10179000C907D5D0416D41F02001416501210022EA
:1017A00080F85020084601B0F0BD00BF40F2FF7144
:1017B000C2F630618E4500F391802021C1F2F041E4
:1017C0008E4500F09D8040F20041C2F600218E451A
:1017D00040F0A68040F60003C2F6306375E700BF14
:1017E0000721C0F690418E4508DC0221C0F230414D
:1017F0008E457FF45FAF012367E700BF0821C0F685
:1018000090418E4500F082801021C1F2C0018E45CA
:1018100040F0868040F20013C2F2801355E700BF0B
:10182000ACF542718F427FF467AFDCF8001042F6EE
:10183000635221F0E071C0F23E52214341F40001B5
:10184000CCF8001040F61421C2F200410968890961
:10185000A1FB02129109022202EB410100910099C1
:1018600000293FF449AF00990139009100990029FE
:101870003FF442AF009901390091009900293FF4EB
:101880003BAF009901390091009900293FF434AF32
:10189000009901390091009900294FF00001E2D12F
:1018A0007DE700BFACF542718F424FF000017FF43D
:1018B00076AF0022CCF6B872964508BF13F48002CA
:1018C0007FF46DAFDCF8001021F0E071214341F4AA
:1018D0008001CCF80010002161E700BF40F6000154
:1018E000C2F630618E4515D041F20001C3F260218D
:1018F0008E4515D142F20003C3F29063E5E600BFC6
:1019000040F20023C2F2B053DFE600BF8023C1F6ED
:101910005053DAE641F20003C3F26023D5E600BF7C
:1019200000210023C4F684318E4504BF0023C4F691
:10193000B873CAE600000000704700000000000015
:101940007047000000000000704700000000000029
:101950002DE9F04F81B046F2083942F20002C5F697
:101960000209C4F202020446006802F5807A02F518
:10197000427B4946504508BF5946904208BF5946E8
:1019800006684568B2070F680FD515F002010CD044
:10199000606DC00603D4606D40F400606065204651
:1019A000FFF7E2FC206802210160710707F01F08C1
:1019B00002D515F0040104D131074DD515F0080109
:1019C0004AD0214651F8542FD20603D40A6842F473
:1019D00000720A60C26812F4406F37D142F200030D
:1019E0000246C4F20203504508BF1A46B8F1090F77
:1019F000134608BF0346B8F1050F08BF0346B8F108
:101A0000000F08BF0346824208BF1346DA689204FB
:101A10001CD40268120719D5826852070CD4426898
:101A200022F00C024260086820F4807008600868A8
:101A3000C00407D50AE000BF606D04F1580140F012
:101A400010006065086840F0010008602046FFF75C
:101A500073FF20680C210160B10602D515F020014A
:101A600004D171062FD515F040012CD0214651F834
:101A7000542FD20603D40A6842F400520A6042F29C
:101A800000020346C4F20202504508BF1346B8F1F3
:101A9000070F1A4608BF0246B8F1060F08BF0246F4
:101AA000B8F1000F08BF0246834208BF1A46C36C54
:101AB00013F4C07FC368D26876D02046FFF758FC85
:101AC00020686021016031060CD515F0800109D035
:101AD000606D40F480306065204600F0D1F92068E8
:101AE00080210160F1050DD515F480710AD0606D7B
:101AF00040F4003060652046FFF742FC20684FF458
:101B000080710160B1050DD515F400710AD0606DCA
:101B100040F4802060652046FFF736FC20684FF4D3
:101B200000710160F10624D515F0100121D0216B60
:101B300089B1B8F1000F59D042F20001504508BFF9
:101B4000D946C4F20201884208BFD946D9F800102C
:101B500011F4404F0BD0606D40F480606065A06D63
:101B600040F00200A0652046FFF7EEFE206810213D
:101B70000160710514D515F4806111D0616D41F4D7
:101B800080416165A16D41F00801A1654FF480615C
:101B90000160204601B0BDE8F04FFFF7EDBB00BF8C
:101BA00001B0BDE8F08F00BF970106D503F4406394
:101BB00002F40057DB197FF480AF03685B067FF502
:101BC0007CAF12F400127FF478AF8268120711D450
:101BD000426822F060024260086820F48050086089
:101BE0000868C0053FF569AF0AE000BFC168890712
:101BF000B1D1BCE7606D04F1580140F010006065A0
:101C0000086840F00100086057E70000000000008D
:101C100070B582B0044600284FF00000019009D052
:101C2000606D58B120688168890012D48168C9004C
:101C300019D54AE00126304602B070BD204600F0BA
:101C400023F90020A06584F850002068816889008D
:101C5000ECD54FF6C0728168C5F6FF721140816005
:101C60008168C90031D44FF6C0718268C5F6FF7132
:101C700001F18051114042F6635201F180518160BF
:101C800040F61421C0F23E52C2F2004109688909AF
:101C9000A1FB0212012101EB921101E0019901392E
:101CA0000191019989B1019901390191019961B1BC
:101CB000019901390191019900291FBF0199013949
:101CC0000191019918BF0029E8D18168C90009D4A0
:101CD000616D012641F010016165A16D41F00101C6
:101CE000A16500E000268168626D02F0100201F03B
:101CF00004018918616D40F0918021F481710231F5
:101D000061658168C90728D142F2001240F48071F0
:101D1000C4F20202914242F20001C4F2020140F018
:101D2000A5808A68D1F808311A43D20715D101F588
:101D3000807201F5427346F2080C9042C5F6020C1F
:101D40001A4618BF0CF54072884208BF1A466068F0
:101D5000116821F47C110843106002F001F841F28F
:101D6000030100228842A068A0F1100188BF01226F
:101D7000B1FA81F1237F49091140226B617D15463B
:101D800016BF4D034A031C20012B45EA034141EADB
:101D9000020141EA000106D1206A0022CFF6FE725C
:101DA00002EB40400143606A20B100F47870A26AFF
:101DB0001043014320684CF20303CFF6F073C2686E
:101DC0001A401143C1608168826801F0040102F089
:101DD0000802891836D1217D44F20305E26AC368FE
:101DE00042EA813123EA05021143C16094F83810B8
:101DF000012901691AD14FF61E020125CFF60042D2
:101E0000CFF6FF751140D4E90F231943636C05EB3E
:101E100002421143A26C1943114309E041F0100042
:101E200001266065304602B070BD00BF21F001019F
:101E300001610169626B21F070411143016120462B
:101E4000FEF71EFD2068E1680129026B22F00F01F8
:101E500002D1A269013A114301630121606D61F36E
:101E600001006065304602B070BD00BF46F2080256
:101E7000C5F602021268D2073FF459AF6DE70000C1
:101E8000704700000000000070B5B8B0044602A81A
:101E90000830B821002537953695FEF755FA42F2FD
:101EA00000012068C4F20201884201D038B070BD40
:101EB0004FF4002002904FF400302B9002A80395BD
:101EC00002F05EFC08B1FFF7C3F944F2D8400026E7
:101ED000C5F60200016841F020010160016801F0CF
:101EE000200101910199816841F0020181608068BF
:101EF00033A900F0020001900198022033900320E2
:101F0000349040F20040C5F60200359601F054FED0
:101F100040F690251020C2F20045C4F2020028606D
:101F20000920C5E901064FF4806028614FF4006084
:101F300068614FF40050A8614FF48070EE60C5E90D
:101F4000070628466E6201F02FF908B1FFF780F905
:101F5000E564AC6338B070BD2DE9F04142F2001782
:101F600046F20835C4F20207036807F50276C5F6A3
:101F700002050446A7F58070BB4208BF3546834280
:101F800008BF354628689B685B0704D40E4694F862
:101F90005010012902D10220BDE8F08100F01F0598
:101FA0000120092D84F8500009D8A84040F22121D1
:101FB000084204D020469046FEF7F2FD30B10020E2
:101FC00084F850000120BDE8F08100BF2168606DF9
:101FD00040F6017220EA020000F5807060650DB1E4
:101FE000B94203D0606D20F480106065606D40F6EA
:101FF000A923C0044FF0000044BFA06D20F00600EC
:1020000040F62137C0F60003A065C0F60007E06C7B
:102010000022C0E90F3740F60933E76AC0F6000333
:10202000C3641C230B6084F8502043464A6842F086
:1020300010024A60CA6822F003023A43CA60403183
:10204000324601F0E5FB21684FF6C073C7F6FF7317
:102050008A681A4004328A60BDE8F08100000000FE
:1020600070B5044690F85000012801D1022070BDDF
:1020700003212046012584F85050FEF799FC28B131
:10208000002084F85000284670BD00BF2168E06C35
:10209000CA6822F00302CA6090F83520022A3AD1B9
:1020A00000F082F8B0B305462068616D41F0400150
:1020B0006165416821F01001416081688268D20742
:1020C000DED011F00201DBD1816801F00D010129A0
:1020D0001ED14FF6C0728168C7F6FF7211400231FF
:1020E00081600321016001F043FE21688968C9070E
:1020F000C6D0064603E000BF8068C007C0D001F02C
:1021000037FE801B03282068F6D38168C907F3D007
:10211000606D39E02168486820F0100048608868E8
:102120008A68D20717D010F0020014D1886800F036
:102130000D00012826D14FF6C0728868C7F6FF72DD
:102140001040023088600320086001F011FE216811
:102150008968C90708D1204641F20112002550F8CC
:10216000541F914316E000BF054602E08068C00797
:10217000F1D001F0FDFD401B03282068F6D38168F3
:10218000C907F3D0606D012540F01000606520465E
:1021900050F8581F41F001010160002084F8500000
:1021A000284670BD000000002DE9F041044601F012
:1021B000DFFD1CB3054694F83500022822D140F219
:1021C0000F462768C4F2020640F26F48B7426FF02C
:1021D0000E00C4F202081DDC6F21C4F202018F421E
:1021E0002ADC3F21C4F202018F4241DC1021C4F2FB
:1021F00002018F4263D028215CE000BF0120BDE8CE
:10220000F08100BF802060650120002184F8341037
:10221000BDE8F08147451BDC40F23F41C4F20201BA
:102220008F422DDC40F21041C4F202018F4246D0B1
:1022300040F228413EE000BF9F21C4F202018F42DC
:1022400028DC7021C4F202018F4238D0882131E0AD
:1022500040F29F41C4F202018F4223DC40F2704100
:10226000C4F202018F422AD040F2884122E000BF2E
:102270004021C4F202018F4221D058211AE000BF50
:1022800040F24041C4F202018F4218D040F258415E
:1022900010E000BFA021C4F202018F420FD0B8218C
:1022A00008E000BF40F2B841C4F202018F4206D0FC
:1022B00040F2A041C4F202018F42394607D13946AB
:1022C000386820F01E0041F8140B6FF080000A6897
:1022D000474500EA020008601ADC9F20C4F20200B1
:1022E000874233DC5720C4F2020087425ADC1020B8
:1022F000C4F20200874200F097802820C4F2020056
:10230000874200F091804020C4F202008AE000BFC2
:1023100045F22F40C5F6020087422DDC40F2B7405F
:10232000C4F2020087424BDC40F27040C4F202006B
:10233000874279D040F28840C4F20200874273D0CD
:1023400040F2A040C4F202006CE000BF40F227401F
:10235000C4F20200874243DCA020C4F2020087429C
:1023600062D0B820C4F2020087425DD040F2104033
:10237000C4F2020056E000BF45F26B40C5F6020011
:1023800087423FDC45F23040C5F6020087424BD021
:1023900045F24440C5F60200874245D045F2584018
:1023A0003EE000BF5820C4F2020087423CD07020BB
:1023B000C4F20200874237D08820C4F2020031E024
:1023C00040F2B840C4F2020087422DD045F20840E6
:1023D000C5F60200874227D045F21C4020E000BF2E
:1023E00040F22840C4F2020087421DD040F2404033
:1023F000C4F20200874217D040F25840C4F20200F3
:1024000010E000BF45F26C40C5F6020087420BD0D9
:1024100045F29440C5F60200874205D045F280405F
:10242000C5F60200874204D1206E016821F4807154
:102430000160386820F00100386000BF3868C007CC
:1024400010D001F095FC401B0628F7D320206065D2
:10245000032084F835000120002184F83410BDE801
:10246000F08100BF2068B04210DC6F21C4F202018D
:1024700088421DDC3F21C4F20201884234DC102175
:10248000C4F20201884255D028214FE040451BDCB0
:1024900040F23F41C4F2020188422DDC40F210417B
:1024A000C4F20201884245D040F228413EE000BF1C
:1024B0009F21C4F20201884228DC7021C4F202018B
:1024C000884237D0882131E040F29F41C4F20201B6
:1024D000884223DC40F27041C4F20201884229D0D4
:1024E00040F2884122E000BF4021C4F2020188424C
:1024F00020D058211AE000BF40F24041C4F202014E
:10250000884217D040F2584110E000BFA021C4F229
:10251000020188420ED0B82108E000BF40F2B84165
:10252000C4F20201884205D040F2A041C4F2020187
:1025300088425BD1D4E9161202F01F023F2303FA4E
:1025400002F28A6040455BDC9F21C4F202018842AE
:1025500014DC5721C4F20201884227DC1021C4F2A6
:102560000201884200F0A2802821C4F202018842C0
:1025700000F09C804021C4F2020195E040F2274126
:10258000C4F2020188421FDCA021C4F20201884289
:1025900000F08C80B821C4F20201884200F08680ED
:1025A00040F21041C4F202017EE000BF5821C4F2A3
:1025B000020188427AD07021C4F20201884275D0AB
:1025C0008821C4F202016FE040F22841C4F2020106
:1025D00088426BD040F24041C4F20201884265D08B
:1025E00040F25841C4F202015EE000BFD4E9161285
:1025F00002F01F02012303FA02F24A604045A3DD04
:1026000045F22F41C5F60201884217DC40F2B7417E
:10261000C4F20201884227DC40F27041C4F2020198
:10262000884243D040F28841C4F2020188423DD042
:1026300040F2A041C4F2020136E000BF45F26B4116
:10264000C5F6020188421FDC45F23041C5F60201A1
:1026500088422BD045F24441C5F60201884225D07C
:1026600045F258411EE000BF40F2B841C4F20201F9
:1026700088421BD045F20841C5F60201884215D0B8
:1026800045F21C410EE000BF45F26C41C5F6020167
:1026900088420BD045F29441C5F60201884205D02C
:1026A00045F28041C5F6020188420BD1616EA26EEF
:1026B000E06E4A6030B1016821F480710160D4E9B4
:1026C0001C014160012084F835000020002184F8BD
:1026D0003410BDE8F0810000F0B190F83510022907
:1026E00018D180B540F20F420168C4F20202914253
:1026F00014DC6F23C4F20203994225DC3F23C4F2A9
:10270000020399423CDC1023C4F2020399425DD0DB
:10271000282357E0802141650120704740F26F4334
:10272000C4F2020399421BDC40F23F43C4F20203AD
:1027300099422DDC40F21043C4F20203994245D085
:1027400040F228433EE000BF9F23C4F202039942B7
:1027500028DC7023C4F20203994237D0882331E089
:1027600040F29F43C4F20203994223DC40F27043DB
:10277000C4F20203994229D040F2884322E000BF0C
:102780004023C4F20203994220D058231AE000BF2C
:1027900040F24043C4F20203994217D040F258433A
:1027A00010E000BFA023C4F2020399420ED0B82368
:1027B00008E000BF40F2B843C4F20203994205D0DA
:1027C00040F2A043C4F20203994277D191424FF004
:1027D000040280F8352011DC6F20C4F2020081422F
:1027E00022DC3F20C4F20200814239DC1020C4F216
:1027F0000200814259D0282054E000BF40F26F40CF
:10280000C4F2020081421BDC40F23F40C4F20200ED
:1028100081422DDC40F21040C4F20200814244D0DB
:1028200040F228403EE000BF9F20C4F202008142F7
:1028300028DC7020C4F20200814236D0882031E0CA
:1028400040F29F40C4F20200814223DC40F270401B
:10285000C4F20200814228D040F2884022E000BF4A
:102860004020C4F2020081421FD058201AE000BF6D
:1028700040F24040C4F20200814216D040F258407B
:1028800010E000BFA020C4F2020081420DD0B820A9
:1028900008E000BF40F2B840C4F20200814204D018
:1028A00040F2A040C4F202008142086820F001001A
:1028B00008600021BDE88040084670470A6822F0A1
:1028C0000E020A6045F25742C5F6020291420A68BA
:1028D00022F001020A600FDC45F22F42C5F6020227
:1028E000914219DC45F20842C5F60202914229D014
:1028F00045F21C4222E000BF45F27F42C5F60202CB
:10290000914213DC45F25842C5F60202914219D0B9
:1029100045F26C4212E000BF45F23042C5F60202B9
:1029200091420FD045F2444208E000BF45F2944284
:10293000C5F60202914205D045F28042C5F6020278
:1029400091421AD1D0E9181CD0E916E30A6822F4A2
:1029500080720A6003F01F01012202FA01F1CEF831
:102960000410816ECCF80410C16E31B10A6822F4F3
:1029700080720A60D0E91C124A60012180F835108B
:10298000026D0021002A80F8341093D0904790E720
:102990002DE9F04782B00021019140F61421044650
:1029A000C2F2004148F2B512C1F64E32A56D096877
:1029B00040F26F490068C4F20209A1FB02184845C1
:1029C0002E68296816DC9F21C4F2020188422DDCA2
:1029D0005721C4F20201884252DC1021C4F20201E4
:1029E00088427CD02821C4F20201884277D040215D
:1029F00070E000BF45F22F42C5F60202904229DC8A
:102A000040F2B742C4F20202904245DC40F270410B
:102A1000C4F20201884262D040F28841C4F202014D
:102A200088425CD040F2A04154E000BF40F2274110
:102A3000C4F2020188423FDCA021C4F202018842B4
:102A40004DD0B821C4F20201884248D040F2104172
:102A500040E000BF45F26B42C5F60202904275DCD1
:102A600045F23042C5F60202904200F0828045F203
:102A70004442C5F6020290427BD045F2584273E0D0
:102A80005821C4F20201884229D07021C4F2020107
:102A9000884224D088211DE040F2B842C4F20202EC
:102AA00090421CD045F20842C5F60202904260D026
:102AB00045F21C4258E000BF40F22841C4F2020136
:102AC00088420CD040F24041C4F20201884206D054
:102AD00040F25841C4F20201884240F05183E16D56
:102AE000082201F01F0140F20F4A8A40C4F2020A94
:102AF000324200F0DE8050454FF0040312DC6F27B5
:102B0000C4F20207B8426DDC3F27C4F20207B842A4
:102B100000F39C801027C4F20207B84200F0BD8089
:102B20002827B5E0484569DC40F23F47C4F2020778
:102B3000B84200F3938040F21047C4F20207B84253
:102B400000F0AB8040F22847A2E000BF45F26C42A3
:102B5000C5F6020290420CD045F28042C5F6020250
:102B6000904206D045F29442C5F60202904240F0EF
:102B700007830268E36D03F01F0304279F400F42A1
:102B800018BF12F0040623D102279F400F4218BF3E
:102B900012F0020642D1D940090740F1F18212F049
:102BA000080100F0ED82016821F00E0101600120B2
:102BB00000FA03F16960606584F83500E16C002972
:102BC0004FF0000084F8340040F0D582D8E200BF16
:102BD00011046F6034D4910636D4016821F00401E9
:102BE000016031E09F27C4F20207B84240DC702741
:102BF000C4F20207B84250D0882749E040F29F470C
:102C0000C4F20207B8423BDC40F27047C4F202074C
:102C1000B84242D040F288473AE000BF11046F60EA
:102C200000F1B282910600F1B382016821F00A013D
:102C30000160012084F83500002084F83400A7E208
:102C4000D00301D4A16C95E2216C93E24027C4F239
:102C50000207B84221D058271AE000BF40F240478F
:102C6000C4F20207B84218D040F2584710E000BF43
:102C7000A027C4F20207B8420FD0B82708E000BF6F
:102C800040F2A047C4F20207B84206D040F2B8476B
:102C9000C4F20207B84218BF082307681F4208D0D1
:102CA000036823F004030360AA60626D42F001022E
:102CB000626501228A4032426FD0504510DC6F239A
:102CC000C4F2020398421DDC3F23C4F2020398427F
:102CD00034DC1023C4F20203984256D028234FE07C
:102CE00048451BDC40F23F43C4F2020398422DDC0E
:102CF00040F21043C4F20203984246D040F2284307
:102D00003EE000BF9F23C4F20203984228DC7023F8
:102D1000C4F20203984238D0882331E040F29F4346
:102D2000C4F20203984223DC40F27043C4F202036F
:102D300098422AD040F2884322E000BF4023C4F2E8
:102D40000203984221D058231AE000BF40F24043CA
:102D5000C4F20203984218D040F2584310E000BF7A
:102D6000A023C4F2020398420FD0B82308E000BFAA
:102D700040F2A043C4F20203984206D040F2B843A6
:102D8000C4F20203984240F0058243691B0604D551
:102D9000AA60626D42F00202626504228A403242F9
:102DA0006FD0504510DC6F23C4F2020398421DDC43
:102DB0003F23C4F20203984234DC1023C4F202031E
:102DC000984256D028234FE048451BDC40F23F4351
:102DD000C4F2020398422DDC40F21043C4F2020315
:102DE000984246D040F228433EE000BF9F23C4F201
:102DF0000203984228DC7023C4F20203984238D0C0
:102E0000882331E040F29F43C4F20203984223DC5E
:102E100040F27043C4F2020398422AD040F2884341
:102E200022E000BF4023C4F20203984221D058237D
:102E30001AE000BF40F24043C4F20203984218D0A7
:102E400040F2584310E000BFA023C4F202039842AE
:102E50000FD0B82308E000BF40F2A043C4F2020341
:102E6000984206D040F2B843C4F20203984240F0C0
:102E7000998103689B0704D5AA60626D42F0040241
:102E80006265102202FA01F1314200F08180504562
:102E90004FF0080210DC6F23C4F2020398421DDCDD
:102EA0003F23C4F20203984234DC1023C4F202032D
:102EB000984256D028234FE048451BDC40F23F4360
:102EC000C4F2020398422DDC40F21043C4F2020324
:102ED000984246D040F228433EE000BF9F23C4F210
:102EE0000203984228DC7023C4F20203984238D0CF
:102EF000882331E040F29F43C4F20203984223DC6E
:102F000040F27043C4F2020398422AD040F2884350
:102F100022E000BF4023C4F20203984221D058238C
:102F20001AE000BF40F24043C4F20203984218D0B6
:102F300040F2584310E000BFA023C4F202039842BD
:102F40000FD0B82308E000BF40F2A043C4F2020350
:102F5000984206D040F2B843C4F20203984218BF28
:102F600004220368134213D0A96001684903016871
:102F700008D4C90508D4016821F008010160216C5A
:102F800021B905E008034FD4216C09B120468847D8
:102F9000E06D00F01F01202000FA01F2324200F043
:102FA000AD8020681023504510DC6F27C4F2020763
:102FB000B8421DDC3F27C4F20207B84238DC1027B4
:102FC000C4F20207B8425AD0282753E048451BDC18
:102FD00040F23F47C4F20207B84231DC40F21047EA
:102FE000C4F20207B8424AD040F2284742E000BF8C
:102FF0009F27C4F20207B8422CDC7027C4F20207F4
:10300000B8423CD0882735E040F29F47C4F202071F
:10301000B84227DC40F27047C4F20207B8422ED013
:1030200040F2884726E000BFA16C0029AED1AFE78F
:103030004027C4F20207B84221D058271AE000BF47
:1030400040F24047C4F20207B84218D040F2584755
:1030500010E000BFA027C4F20207B8420FD0B82783
:1030600008E000BF40F2A047C4F20207B84206D011
:1030700040F2B847C4F20207B84218BF02230768FB
:103080001F423BD0AA6094F83520042A02681DD163
:1030900022F016020260426922F080024261226C34
:1030A0000AB9A26C1AB1026822F0080202603F203D
:1030B0008840A860012084F83500216D00294FF078
:1030C000000084F8340056D15AE000BF5103016873
:1030D0000CD4C9050ED4016821F010010160012053
:1030E00084F83500002084F8340003E0080301D49C
:1030F000616C00E0E16B09B120468847606D0028F3
:103100003ED0606DC00734D0042084F835002068BC
:103110004FEA9821026822F001020260019A01320E
:1031200001928A421AD80268D20717D0019A013256
:1031300001928A4212D80268D2070FD0019A013256
:1031400001928A420AD80268D20707D0019A013256
:1031500001928A4202D80268D207DFD10068C00714
:103160004FF0030008BF012084F83500002084F8E8
:103170003400E16C21B1204602B0BDE8F0470847B9
:1031800002B0BDE8F08700BFD00301D4616CF1E765
:10319000E16BEFE7026804228A4032427FF401AE1D
:1031A0006FE600BF02686CE62DE9F041044600F0CE
:1031B000DFFDFCB140F26F4805462068C4F202080A
:1031C00040451BDC9F21C4F20201884232DC5721BA
:1031D000C4F20201884259DC1021C4F20201884283
:1031E00000F083802821C4F20201884200F07D8033
:1031F000402175E00120BDE8F08100BF45F22F417C
:10320000C5F60201884229DC40F2B741C4F202014E
:10321000884247DC40F27041C4F20201884264D027
:1032200040F28841C4F2020188425ED040F2A041DF
:1032300056E000BF40F22741C4F20201884241DC5F
:10324000A021C4F2020188424FD0B821C4F2020189
:1032500088424AD040F2104142E000BF45F26B4143
:10326000C5F60201884200F3C18045F23041C5F63F
:103270000201884200F0CD8045F24441C5F60201CA
:10328000884200F0C68045F25841BDE05821C4F2A2
:103290000201884229D07021C4F20201884224D060
:1032A00088211DE040F2B841C4F2020188421CD0DE
:1032B00045F20841C5F60201884200F0AA8045F2B5
:1032C0001C41A1E040F22841C4F2020188420CD026
:1032D00040F24041C4F20201884206D040F2584117
:1032E000C4F20201884240F02981022184F835109D
:1032F000002184F83410016821F00101016000BF51
:1033000020680168C9070DD000F032FD401B062877
:10331000F6D320206065032084F835000120BDE845
:10332000F08100BF48F23F0204F108060168CFF6C1
:10333000106211406CCE1143A2691943E36929431D
:10334000256A0E43616A3343042943EA050343EACD
:10335000020303D1D4E90B652E43334341F2000647
:10336000C5F600463668B6F1005F1DD36668A6F163
:103370002905292D18D8DFE805F01515151515159F
:1033800017171717171717171717171717171717CD
:1033900015151515171717171515171717171717C9
:1033A0001515151543F4801303600429436923F0B0
:1033B000070341EA030140F0DD80D4E90A53002B02
:1033C00041EA050100F0D680B2F5005F00F0B88058
:1033D000002A40F0C180022D00F0C180012D00F0D4
:1033E000B580002D00F0BB80C4E000BF45F26C4109
:1033F000C5F6020188420CD045F28041C5F60201B3
:10340000884206D045F29441C5F60201884240F058
:10341000958004F1080E022184F83510002184F80B
:1034200034100168A3699EE80450A2F18007E669A0
:10343000B7FA87F765697F09402A4FEA873743EA79
:1034400006026FF3101142EA050208BF102741EA95
:10345000DC0142EA0E02236A394341EAD20141EA21
:10346000131140F80819C0B2CD2148433C2101EAAC
:103470009020E0652046FDF7CFFCE16D012201F0D0
:103480001F0102FA01F141602068404500F381808C
:103490009F21C4F20201884214DC5721C4F20201C8
:1034A000884227DC1021C4F20201884200F0C78064
:1034B0002821C4F20201884200F0C1804021C4F2F8
:1034C0000201B9E040F22741C4F20201884221DC46
:1034D000A021C4F20201884200F0B180B821C4F2F8
:1034E0000201884200F0AB8040F21041C4F20201B8
:1034F000A2E000BF5821C4F20201884200F09F8080
:103500007021C4F20201884200F099808821C4F23F
:10351000020191E040F22841C4F20201884200F029
:103520008E8040F24041C4F20201884200F0878060
:1035300040F25841C4F202017EE000BF4020E9E6BB
:10354000032D17D8DFE805F00E0B0E02A3F1C072B1
:10355000B2FA82F2520904E0032D03D30AD1C3F375
:1035600000623AB140206065012084F83500BDE872
:10357000F08100BF41612046FDF74EFCE16D3F2226
:1035800001F01F0102FA01F18160206840457FF7D8
:103590007FAF45F22F41C5F60201884216DC40F2AA
:1035A000B741C4F20201884226DC40F27041C4F205
:1035B0000201884243D040F28841C4F202018842AD
:1035C0003DD040F2A041C4F2020135E045F26B412A
:1035D000C5F6020188421FDC45F23041C5F6020102
:1035E00088422CD045F24441C5F60201884226D0DB
:1035F00045F258411EE000BF40F2B841C4F202015A
:1036000088421CD045F20841C5F60201884216D016
:1036100045F21C410EE000BF45F26C41C5F60201C7
:1036200088420CD045F29441C5F60201884206D08A
:1036300045F28041C5F60201884240F0E18045F242
:10364000574C45F6FC01C5F6020CC5F60201604573
:103650000EDC45F22F42C5F60202904218DC45F21C
:103660000842C5F60202904228D045F21C4221E0F1
:1036700045F27F42C5F60202904213DC45F2584201
:10368000C5F60202904219D045F26C4212E000BF2A
:1036900045F23042C5F6020290420FD045F2444254
:1036A00008E000BF45F29442C5F60202904205D000
:1036B00045F28042C5F60202904247D100F0FC027A
:1036C0004CF6CD43083ACCF6CC43A2FB0323A1F140
:1036D000FC05A1F17C061B0905EB830503F01F0225
:1036E000A3682566802B4FF0010303FA02F2666699
:1036F000A26605D100206060286072601EE000BFF5
:103700006768FBB2013F072F2B60726016D85E1E00
:10371000082E19D2604501F1440237DC45F22F47EB
:10372000C5F60207B84241DC45F20847C5F6020774
:10373000B84259D045F21C474AE000BF00206067FC
:10374000C4E91B005CE000BFE06E54E000F0F8024A
:103750004AF6AB23103ACAF6AA23A2FB032740F28B
:103760000F43C4F2020308253A09984203F1AA065E
:10377000134688BF05EB171340F60005B042C4F2AC
:10378000020505F1800628BF1346A5E745F27F47ED
:10379000C5F60207B84213DC45F25847C5F60207E2
:1037A000B84221D045F26C4712E000BF45F23047E5
:1037B000C5F60207B84217D045F2444708E000BFFB
:1037C00045F28047C5F60207B8420DD045F294474E
:1037D000C5F60207B84207D040F60000C4F2020066
:1037E00000F1FC0100F5A07201EB83000121E0660D
:1037F000B1402267616700210160D4E91C0141608A
:1038000000206065012184F83510BDE8F0810000DA
:1038100040B1B0B5054690F83400012804D102202B
:10382000B0BD00BF01207047012085F8340095F835
:103830003500012828D1022085F835000020686570
:103840002868046824F0010404602846FDF778FB2A
:1038500040F20F422868C4F2020240F26F419042E7
:10386000C4F2020118DC6F23C4F20203984225DC83
:103870003F23C4F2020398423CDC1023C4F202034B
:1038800098425ED0282357E04FF40060686500201E
:1038900085F834000120B0BD88421BDC40F23F4374
:1038A000C4F2020398422DDC40F21043C4F202033A
:1038B000984246D040F228433EE000BF9F23C4F226
:1038C0000203984228DC7023C4F20203984238D0E5
:1038D000882331E040F29F43C4F20203984223DC84
:1038E00040F27043C4F2020398422AD040F2884367
:1038F00022E000BF4023C4F20203984221D05823A3
:103900001AE000BF40F24043C4F20203984218D0CC
:1039100040F2584310E000BFA023C4F202039842D3
:103920000FD0B82308E000BF40F2B843C4F202034E
:10393000984206D040F2A043C4F20203984240F0FD
:103940002F8103680B2464F3440303602B6C1BB1C9
:103950000823046823430360884219DC9F23C4F2D0
:103960000203984232DC5723C4F20203984259DC26
:103970001023C4F20203984200F096802823C4F278
:103980000203984200F090804023C4F2020389E0D1
:1039900045F22F43C5F6020398422DDC40F2B743AF
:1039A000C4F2020398424BDC40F27043C4F20203BB
:1039B000984279D040F28843C4F20203984273D00F
:1039C00040F2A043C4F202036CE000BF40F2274380
:1039D000C4F20203984243DCA023C4F202039842DB
:1039E00062D0B823C4F2020398425DD040F2104383
:1039F000C4F2020356E000BF45F26B43C5F6020372
:103A000098423FDC45F23043C5F6020398424BD062
:103A100045F24443C5F60203984245D045F2584367
:103A20003EE000BF5823C4F2020398423CD070230A
:103A3000C4F20203984237D08823C4F2020331E073
:103A400040F2B843C4F2020398422DD045F2084335
:103A5000C5F60203984227D045F21C4320E000BF80
:103A600040F22843C4F2020398421DD040F2404382
:103A7000C4F20203984217D040F25843C4F2020342
:103A800010E000BF45F26C43C5F6020398420BD02C
:103A900045F29443C5F60203984205D045F28043AF
:103AA000C5F60203984274D12B6E1C68E40303D55B
:103AB0001C6844F480741C60EB6E1BB11D6845F4F7
:103AC00080751D60904211DC6F21C4F202018842B2
:103AD0001EDC3F21C4F20201884235DC1021C4F211
:103AE0000201884255D0282150E000BF88421BDCEB
:103AF00040F23F41C4F2020188422DDC40F2104105
:103B0000C4F20201884244D040F228413EE000BFA6
:103B10009F21C4F20201884228DC7021C4F2020114
:103B2000884236D0882131E040F29F41C4F2020140
:103B3000884223DC40F27041C4F20201884228D05E
:103B400040F2884122E000BF4021C4F202018842D5
:103B50001FD058211AE000BF40F24041C4F20201D8
:103B6000884216D040F2584110E000BFA021C4F2B4
:103B7000020188420DD0B82108E000BF40F2B841F0
:103B8000C4F20201884204D040F2A041C4F2020112
:103B90008842016841F0010101600020B0BD00BF12
:103BA0000368052464F3430303602B6C002B3FF48C
:103BB000D3AE0423CDE600002DE9F04F82B00D68AE
:103BC000002D00F0C78000F1264242F2004402F1CD
:103BD000FF728305C5F602040A27A04243EA922237
:103BE00008BF0927092A40F2040C38BF1746C5F65A
:103BF000000C4FF0000E0097002700260AE000BFDF
:103C000001360D6835FA06F207F102070EF1040ECF
:103C100000F0A080012202FA06FB15EA0B08EFD0A3
:103C2000D1F804A003220AF0030502FA07F36C1E80
:103C30006FEA0309012C0FD88368CC6803EA0903F3
:103C4000BC4023438360CAF30014436823EA0B0398
:103C5000B4402343436003E0032D01D1032520E05A
:103C6000C3688C6803EA0903BC40022D43EA0403DD
:103C7000C36016D16FF003020EF01C0502EA560372
:103C80000F22034402FA05FBD3F820A00C692AEAAC
:103C90000B0AAC4044EA0A041C62D1F804A00AF002
:103CA0000305036805FA07F403EA09031AF4403F21
:103CB00043EA04030360A3D044F2F44240F2084A0A
:103CC000C5F60202C5F6000A136843F0020313604A
:103CD00013680F2203F00203019326F00303019CF3
:103CE0000EF00C0453F80A9002FA04F5009A29EA3F
:103CF000050502FA04F44FF0B0492C4343F80A409A
:103D0000D9F800304C6843EA0805E20258BF23EABC
:103D10000805C9F80050A502DCF8002042EA0803B3
:103D200058BF22EA0803A503CCF80030DCF8802055
:103D300042EA080358BF22EA0803E403CCF88030C3
:103D4000DCF87C2042EA080358BF22EA0803CCF8DA
:103D50007C3055E702B0BDE8F08F000000000000A5
:103D600041F20000C5F600400068000C70470000FA
:103D700040F62860C2F20040006870470000000072
:103D800040F60C2040F62861C2F20040C2F2004129
:103D900000780A68104408607047000000000000C6
:103DA00080B5032000F0FCF801F046FC44F2184115
:103DB0004AF2C433C5F60201C0F600030A68C2F332
:103DC00003229A5C096801F00F0102F01F02595C9E
:103DD000D04040F61822C2F2004201F01F0120FA42
:103DE00001F1116040F61421C2F2004108600F2079
:103DF00000F00AF800281CBF012080BD00F07CF80C
:103E0000002080BD0000000070B540F60C26C2F214
:103E100000463178E1B1044640F61420C2F2004079
:103E20004FF47A72B2FBF1F10068B0FBF1F001F0EF
:103E30005FFF0F2C4FF0010508D838B94FF0FF3065
:103E400000222146002500F07BF87460284670BDF2
:103E5000012070BD0000000010B54EF6A05E417854
:103E6000CEF2000E90F800C04EF8081CDEF80010EC
:103E700021F00101CEF8001041684EF8041C017BCE
:103E8000C37A827A447B1B0643EA0171837B41EA51
:103E9000C241C27B41EA8441447A41EA4341007A0B
:103EA00041EA024141EA042141EA400040EA0C00B3
:103EB000CEF8000010BD00004EF62450CEF20000F7
:103EC000BFF35F8F016821F4803101600021016739
:103ED00070470000000000004EF6245140F0010041
:103EE000CEF200010867086840F480300860BFF334
:103EF0004F8FBFF36F8F704781B044F2F440C5F627
:103F00000200016841F002010160006800F0020057
:103F10000090009801B07047002848BF704700F03B
:103F20001F01012202FA01F14EF20012C0F34A1001
:103F3000CEF2000242F8201070470000000000009E
:103F400070B54EF60C5C4FF0FF36CEF2000C00F16F
:103F5000604505F56445DCF80030C3F3022E8EF0B1
:103F60000703042B28BF0423BEF1030406FA03F35E
:103F700021EA030100F00F0338BF0024043B0028AE
:103F8000634406FA04F048BF03F10C05A14022EA9D
:103F9000000008430001287070BD00000000000010
:103FA0004EF60C514FF6FF03CEF200010A681A409C
:103FB00060F30A2242F0806040F0FD7008607047B4
:103FC000B0B544F60C05C5F602052968490729680D
:103FD00006D401F00701081A18BF0120B0BD00BFC8
:103FE00021F0070108432860FFF7C2FE044600BF26
:103FF00055F8080C800407D4FFF7BAFE001BB0F593
:104000007A7FF5D90120B0BD0020B0BD00000000CE
:1040100080B501F089FA44F220414AF2C432C5F673
:104020000201C0F600020968C1F30211515C01F0FF
:104030001F01C84080BD000080B544F2304EC5F677
:10404000020E5EF8083C5EF8081CC1F3051C5EF821
:10405000041CBCF1000FDEF8042019D001F00101AE
:1040600003F003034942022B01EAD2016FF35F31EF
:1040700000EE101AB8EE400A10D0012B12D01BB976
:104080005EF8301C890611D49FED361A1CE000BF83
:1040900000218160C0E9001180BD00BF9FED301A92
:1040A00012E000BF9FED2D1A0EE000BF5EF8301C3D
:1040B00049F20002C0F2D032C1F3C10122FA01F18B
:1040C00001EE101AB8EE411ADEF800109FED263A04
:1040D0006FF35F2102EE101ADEF80010C1F34621E3
:1040E000B8EE422A00EE032A00EE10CAB7EE003AFC
:1040F000B8EE400A81EE000A32EE031A02EE101A00
:10410000B8EE422A20EE010A32EE031A80EE011ABE
:10411000BCEEC11A80ED001ADEF80010C1F30641B2
:1041200001EE101AB8EE411A31EE031A80EE011AB0
:10413000BCEEC11A80ED011ADEF80010C1F3066171
:1041400001EE101AB8EE411A31EE031A80EE010AA0
:10415000BCEEC00A10EE101A816080BD0024744AC3
:104160000024F44A0024744C0000003900000000D0
:1041700080B544F2384EC5F6020E5EF8103C5EF88B
:10418000101C5EF80C2CC1F3053CDEF80410BCF1E9
:10419000000F15D0C908D20601EAE2716FF35F3152
:1041A00000EE101A03F003010229B8EE400A0DD008
:1041B00081B95EF8381C890610D49FED361A1BE0D1
:1041C00000218160C0E9001180BD00BF9FED301A61
:1041D00012E000BF9FED2D1A0EE000BF5EF8381C04
:1041E00049F20002C0F2D032C1F3C10122FA01F15A
:1041F00001EE101AB8EE411ADEF800109FED263AD3
:104200006FF35F2102EE101ADEF80010C1F34621B1
:10421000B8EE422A00EE032A00EE10CAB7EE003ACA
:10422000B8EE400A81EE000A32EE031A02EE101ACE
:10423000B8EE422A20EE010A32EE031A80EE011A8D
:10424000BCEEC11A80ED001ADEF80010C1F3064181
:1042500001EE101AB8EE411A31EE031A80EE011A7F
:10426000BCEEC11A80ED011ADEF80010C1F3066140
:1042700001EE101AB8EE411A31EE031A80EE010A6F
:10428000BCEEC00A10EE101A816080BD0024744A92
:104290000024F44A0024744C00000039000000009F
:1042A00080B544F2404EC5F6020E5EF8183C5EF84A
:1042B000181C5EF8142CC1F3055CDEF80410BCF188
:1042C000000F15D0C908D20501EAE2716FF35F3122
:1042D00000EE101A03F003010229B8EE400A0DD0D7
:1042E00081B95EF8401C890610D49FED361A1BE098
:1042F00000218160C0E9001180BD00BF9FED301A30
:1043000012E000BF9FED2D1A0EE000BF5EF8401CCA
:1043100049F20002C0F2D032C1F3C10122FA01F128
:1043200001EE101AB8EE411ADEF800109FED263AA1
:104330006FF35F2102EE101ADEF80010C1F3462180
:10434000B8EE422A00EE032A00EE10CAB7EE003A99
:10435000B8EE400A81EE000A32EE031A02EE101A9D
:10436000B8EE422A20EE010A32EE031A80EE011A5C
:10437000BCEEC11A80ED001ADEF80010C1F3064150
:1043800001EE101AB8EE411A31EE031A80EE011A4E
:10439000BCEEC11A80ED011ADEF80010C1F306610F
:1043A00001EE101AB8EE411A31EE031A80EE010A3E
:1043B000BCEEC00A10EE101A816080BD0024744A61
:1043C0000024F44A0024744C00000039000000006E
:1043D00010B584B0024641F6FF7300209B1A70EBC3
:1043E000010329DB40F2FF339B1A70EB01034FDA24
:1043F00082F480630B4300F0C38082F400630B43BC
:1044000000F0D28082F48052114340F0888144F25F
:104410000041C5F60201086DC0F30232042A00F221
:104420003E8148F20000C0F2BB00DFE812F0D1008C
:10443000F500FF007801090147F6FF739B1A70EB46
:10444000010343DA82F400430B4300F0C38082F49B
:1044500080330B4300F0D08082F40022114340F0FF
:104460005E8144F20040C5F60200816D01F44031E6
:10447000B1F5003F00F01A81B1F5803F00F02281D4
:10448000002940F00C810068000100F1C88006E1BD
:1044900082F480730B4345D082F40072114340F0E4
:1044A0003E8144F20041C5F60201086DC0F382125C
:1044B000042A00F2F48048F20000C0F2BB00DFE8FA
:1044C00012F08700AB00B5002E01BF0082F400534C
:1044D0000B433DD082F48042114340F0208144F2EE
:1044E0000044C5F60204A06DC0F30270052800F276
:1044F000D680DFE810F00700F100F900FB000101B1
:10450000030100BF01F010F8216A4AF2C432C0F67C
:104510000002C1F30211515C01F01F01C84004B058
:1045200010BD00BF44F20041C5F60201086D00F065
:104530000702042A00F2B38048F20000C0F2BB0078
:10454000DFE812F046006A007400ED007E0000BF54
:1045500044F20040C5F60200016DC1F30241052995
:1045600000F29D80DFE811F006009400D400DE0028
:10457000E400450004B0BDE8104000F0FDBF00BFFE
:1045800044F20041C5F60201886DC0F34252042A8C
:1045900000F2858048F20000C0F2BB00DFE802F0C4
:1045A000183C46BF500000BF44F20041C5F602016E
:1045B000886DC0F30262042A00F2718048F20000A4
:1045C000C0F2BB00DFE802F0042832AB3C0000BFC1
:1045D000086862E044F20040C5F60200016D01F097
:1045E0004051B1F1005F53D0B1F1805F54D0002948
:1045F00055D1006883E000BF44F20040C5F60200D8
:10460000C16C0068C90348D5000148D501A8FFF76F
:10461000AFFD039804B010BD086800013FD501A8A4
:10462000FFF7A6FD019804B010BD00BF0868800028
:1046300035D501A8FFF734FE019804B010BD00BFC6
:10464000C86C0A68520700F0405208680AD54AB997
:10465000C0F3C10049F20001C0F2D03121FA00F0EC
:1046600004B010BDC00502D5B2F1805F6FD00868FC
:10467000B2F1005F00F400314FF0000004BF41F2DE
:104680000020C0F27A00002908BF084604B010BD1F
:104690000068000103D522E00068800102D40020F8
:1046A00004B010BD01A8FFF7C7FC37E0C16C026879
:1046B000520701F04051026844D5002942D1C2F3AB
:1046C000C100C7E700688000E9D501A8FFF7E8FD51
:1046D000039804B010BD00BF20680001DFD501A819
:1046E000FFF746FD1AE000BF206812E0206840078F
:1046F000D5D52068ACE700BF20681AE0206841F2F9
:1047000000218003C0F27A0101EAE07004B010BD1C
:1047100000688000C3D501A8FFF7C2FD029804B06D
:1047200010BD00BF01684907B9D5006890E700BF18
:10473000006840F60011C005C0F23D0101EAE070DA
:1047400004B010BDD20509D5B1F1805F06D140F6A5
:104750000010C0F23D0004B010BD00BF0068B1F110
:10476000005F00F400324FF0000004BF41F200206F
:10477000C0F27A00002A08BF104604B010BD000045
:104780002DE9F0470446C07844F22C480007C5F6EE
:10479000020833D5A06E4FEA305103290CD8DFE868
:1047A00001F003111D2600BFD8F8001041F40031BC
:1047B000C8F800101BE000BF01266078C0070BD0CE
:1047C00020E000BF04F10800022103F091FD06463D
:1047D00060B16078C00715D1354646E004F1280085
:1047E000022103F019FE06460028F2D1A06ED8F887
:1047F000241021F440110843C8F8240000266078F2
:10480000C007E9D0A06D04280ED83546DFE800F0D7
:104810000412181E1E0000BFD8F80000354640F4F0
:104820000030C8F8000011E00125012760788007FA
:104830001FD452E004F10800002103F059FD04E008
:1048400004F12800002103F0E7FD05462F461DB1C5
:10485000607880070DD440E0D8F82400A16D20F0E6
:10486000070000250843C8F8240037466078800711
:1048700033D5E06D4FEAB01004280DD8DFE800F022
:104880000412181E1E0000BFD8F8000040F40030CB
:10489000C8F8000012E000BF01250126607840073B
:1048A0001FD455E004F10800002103F021FD04E0CD
:1048B00004F12800002103F0AFFD05462E461DB18E
:1048C000607840070DD443E0D8F82400E16D20F46F
:1048D000E07000250843C8F824003E466078400791
:1048E00036D5D4F8A8004FEA705004280CD8DFE879
:1048F00000F00313191F1F00D8F8000040F4003027
:10490000C8F8000014E000BF01254FF001096078ED
:10491000000721D456E000BF04F10800002103F095
:10492000E7FC04E004F12800002103F075FD0546D2
:10493000A9461DB1607800070ED443E0D8F82C00DA
:10494000D4F8A81020F4600000250843C8F82C0013
:10495000B1466078000735D5D4F8AC004FEA306036
:1049600004280DD8DFE800F00412181E1E0000BF56
:10497000D8F8000040F40030C8F8000012E000BF92
:1049800001250127E078800720D44EE004F10800DB
:10499000002103F0ADFC04E004F12800002103F045
:1049A0003BFD05462F461DB1E07880070ED43CE064
:1049B000D8F82C00D4F8AC1020F0E06000250843B3
:1049C000C8F82C004F46E07880072ED5E06C4FEAFF
:1049D000301003280ED8DFE800F00903130900BFE8
:1049E000D8F8000040F40030C8F800002E467DB929
:1049F00012E000BF012501266078C00619D44CE002
:104A000004F10800022103F073FC05462E461DB197
:104A10006078C0060DD440E0D8F82000E16C20F0AA
:104A2000300000250843C8F820003E466078C006E4
:104A300033D5206E4FEA303004280DD8DFE800F07F
:104A40000412181E1E0000BFD8F8000040F4003009
:104A5000C8F8000012E000BF012501276078800639
:104A60001FD44EE004F10800002103F041FC04E0F3
:104A700004F12800002103F0CFFC05462F461DB1AC
:104A8000607880060DD43CE0D8F82400216E20F434
:104A9000E04000250843C8F82400374660788006C7
:104AA0002FD5606E4FEA3040052809D8DFE800F0C6
:104AB000040E1404040400BF2E46ADB918E000BF74
:104AC00001250126607840061FD44FE004F108005C
:104AD000012103F00DFC04E004F12800012103F0A2
:104AE0009BFC05462E461DB1607840060DD43DE086
:104AF000D8F82400616E20F4E02000250843C8F8AF
:104B000024003E466078400630D5D4F8B0004FEA25
:104B10003070052808D8DFE800F0030D1303030305
:104B20002F46ADB918E000BF0125012760780006C7
:104B300020D442E004F10800012103F0D9FB04E095
:104B400004F12800012103F067FC05462F461DB142
:104B5000607800060ED430E0D8F82C00D4F8B010FD
:104B600020F0E04000250843C8F82C003746607864
:104B7000000622D5206F58B1B0F1005F0CD0B0F123
:104B8000805F2FD1D8F8000040F40030C8F8000052
:104B90002E469DB908E000BF04F10800012103F092
:104BA000A7FB05462E464DB9D8F82400216F20F00A
:104BB000405000250843C8F824003E46E078C0076E
:104BC00033D0A06C032813D8DFE800F008021A08DD
:104BD000D8F8000040F40030C8F80000A946BDB97C
:104BE0001AE000BF01250126E078C007E9D11CE0EA
:104BF00001254FF00109A07840061AD51CE000BF3E
:104C000004F10800022103F073FB0546A9461DB11B
:104C1000A07840060DD50FE0D8F82000A16C20F058
:104C2000030000250843C8F82000B146A0784006DC
:104C300002D44F4618E000BFD8F8D40340F4807087
:104C4000C8F8D403FFF794F8064600BFD8F8D40399
:104C5000C00507D4FFF78CF8801B6428F6D903251C
:104C6000032701E02F468DB12078C00761D0E06FA7
:104C70004FEAF00005283BD8DFE800F00440460486
:104C8000040400BF002D2E4646D149E0D8F8441058
:104C9000D4F8B400414011F4407F11D0D8F844104A
:104CA000D8F8442042F48032C8F84420D8F8442090
:104CB00021F4407122F48032C8F84420C8F844102E
:104CC000B0F5807F40F0DE82FFF752F8064641F2F1
:104CD000883A0325032700BFD8F84400800700F175
:104CE000CF82FFF745F8801B5045F5D9BCE700BFE0
:104CF00001250126207880071FD44CE004F108002C
:104D0000012103F0F5FA04E004F12800012103F089
:104D100083FB05462E461DB1207880070DD43AE06E
:104D2000D8F82800E16F20F0380000250843C8F8C3
:104D300028003E46207880072DD5A06F052809D889
:104D4000DFE800F0040E1404040400BF2F46ADB9E0
:104D500018E000BF01250127207840071FD44DE04F
:104D600004F10800012103F0C3FA04E004F1280073
:104D7000012103F051FB05462F461DB12078400765
:104D80000DD43BE0D8F82800A16F20F007000025E3
:104D90000843C8F828003746207840072ED5D4F8B5
:104DA0009400052808D8DFE800F0030D130303037F
:104DB0002E46ADB918E000BF0125012620788006F7
:104DC00020D451E004F10800012103F091FA04E03D
:104DD00004F12800012103F01FFB05462E461DB1FA
:104DE000207880060ED43FE0D8F82C00D4F8941038
:104DF00020F0070000250843C8F82C003E46207824
:104E0000800631D5D4F890004FEA3070052809D8D3
:104E1000DFE800F0040E1404040400BF2F46ADB90F
:104E200018E000BF012501272078400620D451E07A
:104E300004F10800002103F05BFA04E004F128000B
:104E4000022103F0E9FA05462F461DB120784006FD
:104E50000ED43FE0D8F82800D4F8901020F0E040BD
:104E600000250843C8F8280037462078400631D589
:104E7000D4F89C004FEAB020052809D8DFE800F0FC
:104E8000040E1404040400BF2E46ADB918E000BFA0
:104E9000012501262078000620D454E004F1080002
:104EA000002103F025FA04E004F12800022103F0B8
:104EB000B3FA05462E461DB1207800060ED442E016
:104EC000D8F82C00D4F89C1020F4E05000250843BA
:104ED000C8F82C003E462078000634D5D4F8A0004F
:104EE0004FEA703005280FD8DFE800F004141A04E8
:104EF000040400BF2F46E5B12068010727D4C1068E
:104F00003ED4000355D475E0012501272068010730
:104F1000F5D51CE004F10800002103F0E9F904E0F4
:104F200004F12800022103F077FA0546002D2F46F0
:104F3000E2D1D8F82C00D4F8A01020F4604000256D
:104F40000843C8F82C00374620680107D7D5D4F8A5
:104F50008400B0F5805F09D104F12800022103F03C
:104F60005BFA002818BF0127D4F88400D8F828106D
:104F700021F440510843C8F828002068C106C0D574
:104F8000D4F89800B0F5807F09D104F128000221FF
:104F900003F042FA002818BF0127D4F89800D8F887
:104FA0002C1021F440710843C8F82C00206800033D
:104FB00020D5D4F8A400B0F5003F0FD0B0F5803F65
:104FC00006D078BB04F10800002103F091F904E059
:104FD00004F12800022103F01FFA05462E4655B9B8
:104FE000D8F82C00D4F8A41020F440300025084351
:104FF000C8F82C003E46A07840072BD5D4F888008E
:10500000B0F5401F0BD0B0F5001F11D0B0F5801FD8
:105010002AD1D8F8000040F40030C8F800002F462C
:10502000CDB90DE001250126A0784007E6D411E0B6
:1050300004F12800012103F0EFF905462F4655B988
:10504000D8F82800D4F8881020F440100025084330
:10505000C8F828003746A078C0070AD13E46216824
:10506000880016D533E000BF01250127A078C007CE
:10507000F4D0206DB0F5803F10D018BBD8F80000F8
:1050800040F40030C8F800002E4685B12168880041
:105090001DD460688A0326D469E000BF04F10800CB
:1050A000022103F025F90546002D2E46EED1D8F851
:1050B0002000216D20F4803000250843C8F820002E
:1050C000CCE700BF0125012621688800E1D504F165
:1050D0002800022103F0A0F9002818BF0126D4E916
:1050E00000108A0343D5D4F880206FF0010303EB4E
:1050F0003223022B0BD34FEA322343B1012B40F072
:10510000B980D8F8003043F40033C8F800303DB31C
:10511000CA022FD4CA0037D48A0240D44A0048D4E5
:10512000CA0F55D109025DD4C10766D181076FD47A
:10513000410779D4010700F18380C10600F18C801A
:10514000800607D504F12800022103F065F9002844
:1051500018BF0125002D18BF01252846BDE8F0879E
:10516000D8F8283023F440731A43C8F8282035466D
:10517000CA02CFD5D8F82420636F22F000421A4328
:10518000C8F82420CA00C7D558F81C2CD4F8B83069
:1051900022F480421A4348F81C2C8A02BED5D8F863
:1051A0002420E36E22F080721A43C8F824204A00BB
:1051B000B6D558F81C2C22F4004248F81C2CD4F820
:1051C000BC2058F81C3C1A4348F81C2CCA0FA9D024
:1051D000D8F82020636D22F040521A43C8F82020EE
:1051E0000902A1D5D8F82810D4F88C2021F4400168
:1051F0001143C8F82810C10798D004F10800002115
:1052000003F076F8002818BF0546606881078FD53F
:1052100004F10800012103F06BF8002818BF0546CF
:10522000606841077FF586AF04F10800022103F0B2
:105230005FF8002818BF0546606801077FF57DAF5D
:1052400004F12800002103F0E7F8002818BF054604
:105250006068C1067FF574AF04F12800012103F0F6
:10526000DBF8002818BF0546606880063FF56AAF86
:1052700070E700BF0125CA027FF54CAF7AE700BF97
:10528000D4F8B4004FF6CF7358F81C2CC0F2FF03CB
:1052900000F4407122F47C5203EA10136FF31F30C4
:1052A000B1F5407F08BF1A43002548F81C2CD8F8F8
:1052B00044100843C8F84400FFF7BBBC00000000DE
:1052C0002DE9F04381B0002800F02A8142F2000865
:1052D0000446C5F200288946D8F8000000F00F0007
:1052E00088420ED2D8F8000020F00F0040EA0900F2
:1052F000C8F80000D8F8000000F00F00484540F062
:105300000F81206844F218474107C5F602070AD505
:1053100021693A6802F07002914204D93A6822F099
:1053200070021143396001070AD561697A6802F099
:105330007002914204D97A6822F0700211437960B8
:10534000C1060AD5A1697A6802F4E062914204D9E3
:105350007A6822F4E0621143796081060AD5E16936
:10536000BA6802F07002914204D9BA6822F0700261
:105370001143B96010F002010AD0E2683B6803F003
:105380000F039A4204D93B6823F00F031A433A6093
:10539000C20746D03968D4E9010221F470610128BE
:1053A00041EA0201396009D003280DD0022811D149
:1053B00057F8181C890312D4B2E000BF57F8181C24
:1053C000C9050CD4ACE000BF57F8181C890106D4FD
:1053D000A6E000BF57F8181C490740F1A18057F814
:1053E000081C21F00701084347F8080CFEF7C0FC31
:1053F000064641F2883500BF57F8080C616800F096
:105400003800B0EBC10F09D0FEF7B2FC801BA842F8
:10541000F2D9032001B0BDE8F08300BF206800F09E
:10542000020151B1E1683A6802F00F02914204D2E0
:105430003A6822F00F0211433960D8F8001001F0E9
:105440000F0149450DD9D8F8001021F00F0141EAAC
:105450000901C8F80010D8F8001001F00F01494503
:105460005ED141070AD521693A6802F07002914283
:1054700004D23A6822F070021143396001070AD55C
:1054800061697A6802F07002914204D27A6822F06F
:10549000700211437960C1060AD5A1697A6802F4E5
:1054A000E062914204D27A6822F4E06211437960AA
:1054B00080060AD5E069B96801F07001884204D21B
:1054C000B96821F070010843B86000F0B5F8396898
:1054D0004AF2C432C0F60002C1F30321515C3B68BA
:1054E00003F00F0301F01F01D25C20FA01F102F07A
:1054F0001F0040F61822C2F2004221FA00F01060AC
:1055000040F6102040F61422C2F20040C2F20042DF
:105510000068116001B0BDE8F043FEF775BC00BF44
:10552000012001B0BDE8F08380B500F085F844F2B9
:1055300018414AF2C433C5F60201C0F600030A68F6
:10554000C2F303229A5C096801F00F0102F01F0206
:10555000595C20FA02F201F01F0040F61821C2F255
:10556000004122FA00F0086040F61421C2F2004126
:105570000A6080BD0000000080B500F05DF844F2D4
:10558000184C4AF2C433C5F6020CC0F60003DCF82E
:105590000020C2F303229A5CDCF8001001F00F0136
:1055A00002F01F02595CD04040F61822C2F20042BD
:1055B00001F01F0120FA01F1116040F61422C2F23D
:1055C00000421060DCF80400C0F30210185C00F028
:1055D0001F0021FA00F080BD80B500F02DF844F2E4
:1055E000184C4AF2C433C5F6020CC0F60003DCF8CE
:1055F0000020C2F303229A5CDCF8001001F00F01D6
:1056000002F01F02595CD04040F61822C2F200425C
:1056100001F01F0120FA01F1116040F61422C2F2DC
:1056200000421060DCF80400C0F30220185C00F0B7
:105630001F0021FA00F080BD44F20041C5F60201CE
:105640000869C0F3C200032810D002282ED098BBEE
:105650000868800649F20000C0F2D03058BF704799
:105660000968C1F3C101C840704700BF8A6A886AEF
:10567000C0F3051CC86ABCF1000F4B6B22D000F0D0
:10568000010002F003024042022A00EAD3006FF355
:105690005F3000EE100AB8EE400A15D0C2B90868B3
:1056A000800619D49FED281A23E000BF41F20020A4
:1056B000C0F27A00704700BF40F60010C0F23D0013
:1056C000704700BF002070479FED1E1A11E000BF19
:1056D0009FED1B1A0DE000BF086849F20002C0F2FE
:1056E000D032C0F3C10022FA00F001EE100AB8EE89
:1056F000411A086B9FED153A6FF35F2002EE100A16
:10570000086BC0F34620B8EE422A013000EE032AAF
:1057100000EE10CAB7EE003AB8EE400A81EE000A79
:1057200032EE031A20EE010A01EE100AB8EE411A19
:1057300080EE010ABCEEC00A10EE100A704700BFEE
:105740000024744A0024F44A0024744C00000039F8
:1057500070B3F0B581B00446007844F20046C0074B
:10576000C5F6020626D12078800740F1C280306954
:1057700010F03801B06A43D0182908BF5FEA807082
:105780003ED0E0683168002866D021F01901084356
:105790003060FEF7EDFA0546306840074CD4FEF75E
:1057A000E7FA401B0228F7D9032001B0F0BD00BF83
:1057B00001207047306900F03801B06A102905D027
:1057C00018290BD100F00300022807D130688003AC
:1057D000C9D560680028C6D13CE100BF60680028D8
:1057E0004CD0B0F5A02F61D0B0F5803F62D03068CA
:1057F00020F480303060306820F480205DE000BF0D
:1058000030684007E06802D5002800F02381316845
:1058100021F0190108433060FEF7AAFA054600BFDF
:105820003068400708D4FEF7A3FA401B02284FF067
:105830000300F5D901B0F0BDFEF792FA41F2030181
:1058400088424BD820697168402821F47C314DD1C1
:1058500041F400304CE000BF21F001003060FEF761
:1058600087FA05463068400743D5FEF781FA401BAA
:1058700002284FF00300F5D9DCE700BF306820F4C0
:1058800080303060306820F480203060FEF770FA9D
:10589000054600BF306880037FF565AFFEF768FA04
:1058A000401B64284FF00300F4D9C3E7306840F48C
:1058B00080203060306840F480303060FEF758FA65
:1058C000054600BF306880033FF54DAFFEF750FA44
:1058D000401B6428F6D9032001B0F0BD706821692F
:1058E00020F0FE4040EA016002E000BF41EA0030E3
:1058F00070602078C00654D5306900F03801B06A75
:10590000082905D0182919D100F00300012815D164
:105910003068C00503D5E069802840F09B80FEF721
:105920001FFA41F2030188421ED8206A71682028BC
:1059300021F0F84132D141F0804031E0E0690028A7
:10594000306819D040F080003060FEF711FA05464B
:105950003068C005E3D4FEF70BFA401B02284FF075
:105960000300F5D966E700BFF068216A20F07C509B
:1059700040EA0160F06014E020F080003060FEF743
:10598000F7F905463068C0050BD5FEF7F1F9401B65
:1059900002284FF00300F5D94CE700BF41EA8060D0
:1059A0007060207800073FD42078800656D4207895
:1059B000400769D4656A9DB3306900F03800182843
:1059C00040F0AC80012DB16A306B43D001F003028E
:1059D000A36A9A423ED1C1F30511E26A914239D1DC
:1059E0000146226B6FF35F21013A914232D1C0F33D
:1059F0004622616B01398A422CD1C0F30642A16B69
:105A000001398A4226D1C0F30660E16B0139884230
:105A100020D1706BA16CC0F3CC00814240F0348186
:105A2000002001B0F0BD00BF60690028706F41D058
:105A300040F001007067FEF79BF90546706F800724
:105A4000B2D4FEF795F9401B0228F7D9032001B024
:105A5000F0BD00BF012001B0F0BD00BFA06900286B
:105A6000306849D040F480503060FEF781F9054637
:105A7000306880049BD4FEF77BF9401B0228F7D9DD
:105A8000032001B0F0BD00BFD6F8000440F48070E0
:105A9000C6F80004FEF76CF9054600BFD6F800040E
:105AA000C00519D4FEF764F9401B6428F6D9032019
:105AB00001B0F0BD20F001007067FEF759F905460E
:105AC000706F80077FF570AFFEF752F9401B022818
:105AD0004FF00300F4D9ADE6A068002840D00528B7
